{
  "_format": "hh-sol-artifact-1",
  "contractName": "MockNFT",
  "sourceName": "contracts/MockNFT.sol",
  "abi": [
    {
      "inputs": [],
      "stateMutability": "nonpayable",
      "type": "constructor"
    },
    {
      "inputs": [
        {
          "internalType": "address",
          "name": "sender",
          "type": "address"
        },
        {
          "internalType": "uint256",
          "name": "tokenId",
          "type": "uint256"
        },
        {
          "internalType": "address",
          "name": "owner",
          "type": "address"
        }
      ],
      "name": "ERC721IncorrectOwner",
      "type": "error"
    },
    {
      "inputs": [
        {
          "internalType": "address",
          "name": "operator",
          "type": "address"
        },
        {
          "internalType": "uint256",
          "name": "tokenId",
          "type": "uint256"
        }
      ],
      "name": "ERC721InsufficientApproval",
      "type": "error"
    },
    {
      "inputs": [
        {
          "internalType": "address",
          "name": "approver",
          "type": "address"
        }
      ],
      "name": "ERC721InvalidApprover",
      "type": "error"
    },
    {
      "inputs": [
        {
          "internalType": "address",
          "name": "operator",
          "type": "address"
        }
      ],
      "name": "ERC721InvalidOperator",
      "type": "error"
    },
    {
      "inputs": [
        {
          "internalType": "address",
          "name": "owner",
          "type": "address"
        }
      ],
      "name": "ERC721InvalidOwner",
      "type": "error"
    },
    {
      "inputs": [
        {
          "internalType": "address",
          "name": "receiver",
          "type": "address"
        }
      ],
      "name": "ERC721InvalidReceiver",
      "type": "error"
    },
    {
      "inputs": [
        {
          "internalType": "address",
          "name": "sender",
          "type": "address"
        }
      ],
      "name": "ERC721InvalidSender",
      "type": "error"
    },
    {
      "inputs": [
        {
          "internalType": "uint256",
          "name": "tokenId",
          "type": "uint256"
        }
      ],
      "name": "ERC721NonexistentToken",
      "type": "error"
    },
    {
      "anonymous": false,
      "inputs": [
        {
          "indexed": true,
          "internalType": "address",
          "name": "owner",
          "type": "address"
        },
        {
          "indexed": true,
          "internalType": "address",
          "name": "approved",
          "type": "address"
        },
        {
          "indexed": true,
          "internalType": "uint256",
          "name": "tokenId",
          "type": "uint256"
        }
      ],
      "name": "Approval",
      "type": "event"
    },
    {
      "anonymous": false,
      "inputs": [
        {
          "indexed": true,
          "internalType": "address",
          "name": "owner",
          "type": "address"
        },
        {
          "indexed": true,
          "internalType": "address",
          "name": "operator",
          "type": "address"
        },
        {
          "indexed": false,
          "internalType": "bool",
          "name": "approved",
          "type": "bool"
        }
      ],
      "name": "ApprovalForAll",
      "type": "event"
    },
    {
      "anonymous": false,
      "inputs": [
        {
          "indexed": true,
          "internalType": "address",
          "name": "from",
          "type": "address"
        },
        {
          "indexed": true,
          "internalType": "address",
          "name": "to",
          "type": "address"
        },
        {
          "indexed": true,
          "internalType": "uint256",
          "name": "tokenId",
          "type": "uint256"
        }
      ],
      "name": "Transfer",
      "type": "event"
    },
    {
      "inputs": [
        {
          "internalType": "address",
          "name": "to",
          "type": "address"
        },
        {
          "internalType": "uint256",
          "name": "tokenId",
          "type": "uint256"
        }
      ],
      "name": "approve",
      "outputs": [],
      "stateMutability": "nonpayable",
      "type": "function"
    },
    {
      "inputs": [
        {
          "internalType": "address",
          "name": "owner",
          "type": "address"
        }
      ],
      "name": "balanceOf",
      "outputs": [
        {
          "internalType": "uint256",
          "name": "",
          "type": "uint256"
        }
      ],
      "stateMutability": "view",
      "type": "function"
    },
    {
      "inputs": [
        {
          "internalType": "uint256",
          "name": "tokenId",
          "type": "uint256"
        }
      ],
      "name": "getApproved",
      "outputs": [
        {
          "internalType": "address",
          "name": "",
          "type": "address"
        }
      ],
      "stateMutability": "view",
      "type": "function"
    },
    {
      "inputs": [
        {
          "internalType": "address",
          "name": "owner",
          "type": "address"
        },
        {
          "internalType": "address",
          "name": "operator",
          "type": "address"
        }
      ],
      "name": "isApprovedForAll",
      "outputs": [
        {
          "internalType": "bool",
          "name": "",
          "type": "bool"
        }
      ],
      "stateMutability": "view",
      "type": "function"
    },
    {
      "inputs": [
        {
          "internalType": "address",
          "name": "to",
          "type": "address"
        }
      ],
      "name": "mint",
      "outputs": [],
      "stateMutability": "nonpayable",
      "type": "function"
    },
    {
      "inputs": [],
      "name": "name",
      "outputs": [
        {
          "internalType": "string",
          "name": "",
          "type": "string"
        }
      ],
      "stateMutability": "view",
      "type": "function"
    },
    {
      "inputs": [
        {
          "internalType": "uint256",
          "name": "tokenId",
          "type": "uint256"
        }
      ],
      "name": "ownerOf",
      "outputs": [
        {
          "internalType": "address",
          "name": "",
          "type": "address"
        }
      ],
      "stateMutability": "view",
      "type": "function"
    },
    {
      "inputs": [
        {
          "internalType": "address",
          "name": "from",
          "type": "address"
        },
        {
          "internalType": "address",
          "name": "to",
          "type": "address"
        },
        {
          "internalType": "uint256",
          "name": "tokenId",
          "type": "uint256"
        }
      ],
      "name": "safeTransferFrom",
      "outputs": [],
      "stateMutability": "nonpayable",
      "type": "function"
    },
    {
      "inputs": [
        {
          "internalType": "address",
          "name": "from",
          "type": "address"
        },
        {
          "internalType": "address",
          "name": "to",
          "type": "address"
        },
        {
          "internalType": "uint256",
          "name": "tokenId",
          "type": "uint256"
        },
        {
          "internalType": "bytes",
          "name": "data",
          "type": "bytes"
        }
      ],
      "name": "safeTransferFrom",
      "outputs": [],
      "stateMutability": "nonpayable",
      "type": "function"
    },
    {
      "inputs": [
        {
          "internalType": "address",
          "name": "operator",
          "type": "address"
        },
        {
          "internalType": "bool",
          "name": "approved",
          "type": "bool"
        }
      ],
      "name": "setApprovalForAll",
      "outputs": [],
      "stateMutability": "nonpayable",
      "type": "function"
    },
    {
      "inputs": [
        {
          "internalType": "bytes4",
          "name": "interfaceId",
          "type": "bytes4"
        }
      ],
      "name": "supportsInterface",
      "outputs": [
        {
          "internalType": "bool",
          "name": "",
          "type": "bool"
        }
      ],
      "stateMutability": "view",
      "type": "function"
    },
    {
      "inputs": [],
      "name": "symbol",
      "outputs": [
        {
          "internalType": "string",
          "name": "",
          "type": "string"
        }
      ],
      "stateMutability": "view",
      "type": "function"
    },
    {
      "inputs": [],
      "name": "tokenIdCounter",
      "outputs": [
        {
          "internalType": "uint256",
          "name": "",
          "type": "uint256"
        }
      ],
      "stateMutability": "view",
      "type": "function"
    },
    {
      "inputs": [
        {
          "internalType": "uint256",
          "name": "tokenId",
          "type": "uint256"
        }
      ],
      "name": "tokenURI",
      "outputs": [
        {
          "internalType": "string",
          "name": "",
          "type": "string"
        }
      ],
      "stateMutability": "view",
      "type": "function"
    },
    {
      "inputs": [
        {
          "internalType": "address",
          "name": "from",
          "type": "address"
        },
        {
          "internalType": "address",
          "name": "to",
          "type": "address"
        },
        {
          "internalType": "uint256",
          "name": "tokenId",
          "type": "uint256"
        }
      ],
      "name": "transferFrom",
      "outputs": [],
      "stateMutability": "nonpayable",
      "type": "function"
    }
  ],
  "bytecode": "0x60806040523480156200001157600080fd5b506040518060400160405280600581526020017f4d794e46540000000000000000000000000000000000000000000000000000008152506040518060400160405280600481526020017f4d4e46540000000000000000000000000000000000000000000000000000000081525081600090816200008f919062000324565b508060019081620000a1919062000324565b5050506200040b565b600081519050919050565b7f4e487b7100000000000000000000000000000000000000000000000000000000600052604160045260246000fd5b7f4e487b7100000000000000000000000000000000000000000000000000000000600052602260045260246000fd5b600060028204905060018216806200012c57607f821691505b602082108103620001425762000141620000e4565b5b50919050565b60008190508160005260206000209050919050565b60006020601f8301049050919050565b600082821b905092915050565b600060088302620001ac7fffffffffffffffffffffffffffffffffffffffffffffffffffffffffffffffff826200016d565b620001b886836200016d565b95508019841693508086168417925050509392505050565b6000819050919050565b6000819050919050565b600062000205620001ff620001f984620001d0565b620001da565b620001d0565b9050919050565b6000819050919050565b6200022183620001e4565b6200023962000230826200020c565b8484546200017a565b825550505050565b600090565b6200025062000241565b6200025d81848462000216565b505050565b5b8181101562000285576200027960008262000246565b60018101905062000263565b5050565b601f821115620002d4576200029e8162000148565b620002a9846200015d565b81016020851015620002b9578190505b620002d1620002c8856200015d565b83018262000262565b50505b505050565b600082821c905092915050565b6000620002f960001984600802620002d9565b1980831691505092915050565b6000620003148383620002e6565b9150826002028217905092915050565b6200032f82620000aa565b67ffffffffffffffff8111156200034b576200034a620000b5565b5b62000357825462000113565b6200036482828562000289565b600060209050601f8311600181146200039c576000841562000387578287015190505b62000393858262000306565b86555062000403565b601f198416620003ac8662000148565b60005b82811015620003d657848901518255600182019150602085019450602081019050620003af565b86831015620003f65784890151620003f2601f891682620002e6565b8355505b6001600288020188555050505b505050505050565b611e7b806200041b6000396000f3fe608060405234801561001057600080fd5b50600436106100f55760003560e01c80636a62784211610097578063a22cb46511610066578063a22cb46514610284578063b88d4fde146102a0578063c87b56dd146102bc578063e985e9c5146102ec576100f5565b80636a627842146101fc57806370a082311461021857806395d89b411461024857806398bdf6f514610266576100f5565b8063095ea7b3116100d3578063095ea7b31461017857806323b872dd1461019457806342842e0e146101b05780636352211e146101cc576100f5565b806301ffc9a7146100fa57806306fdde031461012a578063081812fc14610148575b600080fd5b610114600480360381019061010f919061164e565b61031c565b6040516101219190611696565b60405180910390f35b6101326103fe565b60405161013f9190611741565b60405180910390f35b610162600480360381019061015d9190611799565b610490565b60405161016f9190611807565b60405180910390f35b610192600480360381019061018d919061184e565b6104ac565b005b6101ae60048036038101906101a9919061188e565b6104c2565b005b6101ca60048036038101906101c5919061188e565b6105c4565b005b6101e660048036038101906101e19190611799565b6105e4565b6040516101f39190611807565b60405180910390f35b610216600480360381019061021191906118e1565b6105f6565b005b610232600480360381019061022d91906118e1565b61061d565b60405161023f919061191d565b60405180910390f35b6102506106d7565b60405161025d9190611741565b60405180910390f35b61026e610769565b60405161027b919061191d565b60405180910390f35b61029e60048036038101906102999190611964565b61076f565b005b6102ba60048036038101906102b59190611ad9565b610785565b005b6102d660048036038101906102d19190611799565b6107aa565b6040516102e39190611741565b60405180910390f35b61030660048036038101906103019190611b5c565b610813565b6040516103139190611696565b60405180910390f35b60007f80ac58cd000000000000000000000000000000000000000000000000000000007bffffffffffffffffffffffffffffffffffffffffffffffffffffffff1916827bffffffffffffffffffffffffffffffffffffffffffffffffffffffff191614806103e757507f5b5e139f000000000000000000000000000000000000000000000000000000007bffffffffffffffffffffffffffffffffffffffffffffffffffffffff1916827bffffffffffffffffffffffffffffffffffffffffffffffffffffffff1916145b806103f757506103f6826108a7565b5b9050919050565b60606000805461040d90611bcb565b80601f016020809104026020016040519081016040528092919081815260200182805461043990611bcb565b80156104865780601f1061045b57610100808354040283529160200191610486565b820191906000526020600020905b81548152906001019060200180831161046957829003601f168201915b5050505050905090565b600061049b82610911565b506104a582610999565b9050919050565b6104be82826104b96109d6565b6109de565b5050565b600073ffffffffffffffffffffffffffffffffffffffff168273ffffffffffffffffffffffffffffffffffffffff16036105345760006040517f64a0ae9200000000000000000000000000000000000000000000000000000000815260040161052b9190611807565b60405180910390fd5b600061054883836105436109d6565b6109f0565b90508373ffffffffffffffffffffffffffffffffffffffff168173ffffffffffffffffffffffffffffffffffffffff16146105be578382826040517f64283d7b0000000000000000000000000000000000000000000000000000000081526004016105b593929190611bfc565b60405180910390fd5b50505050565b6105df83838360405180602001604052806000815250610785565b505050565b60006105ef82610911565b9050919050565b61060281600654610c0a565b6006600081548092919061061590611c62565b919050555050565b60008073ffffffffffffffffffffffffffffffffffffffff168273ffffffffffffffffffffffffffffffffffffffff16036106905760006040517f89c62b640000000000000000000000000000000000000000000000000000000081526004016106879190611807565b60405180910390fd5b600360008373ffffffffffffffffffffffffffffffffffffffff1673ffffffffffffffffffffffffffffffffffffffff168152602001908152602001600020549050919050565b6060600180546106e690611bcb565b80601f016020809104026020016040519081016040528092919081815260200182805461071290611bcb565b801561075f5780601f106107345761010080835404028352916020019161075f565b820191906000526020600020905b81548152906001019060200180831161074257829003601f168201915b5050505050905090565b60065481565b61078161077a6109d6565b8383610d03565b5050565b6107908484846104c2565b6107a461079b6109d6565b85858585610e72565b50505050565b60606107b582610911565b5060006107c0611023565b905060008151116107e0576040518060200160405280600081525061080b565b806107ea8461103a565b6040516020016107fb929190611ce6565b6040516020818303038152906040525b915050919050565b6000600560008473ffffffffffffffffffffffffffffffffffffffff1673ffffffffffffffffffffffffffffffffffffffff16815260200190815260200160002060008373ffffffffffffffffffffffffffffffffffffffff1673ffffffffffffffffffffffffffffffffffffffff16815260200190815260200160002060009054906101000a900460ff16905092915050565b60007f01ffc9a7000000000000000000000000000000000000000000000000000000007bffffffffffffffffffffffffffffffffffffffffffffffffffffffff1916827bffffffffffffffffffffffffffffffffffffffffffffffffffffffff1916149050919050565b60008061091d83611108565b9050600073ffffffffffffffffffffffffffffffffffffffff168173ffffffffffffffffffffffffffffffffffffffff160361099057826040517f7e273289000000000000000000000000000000000000000000000000000000008152600401610987919061191d565b60405180910390fd5b80915050919050565b60006004600083815260200190815260200160002060009054906101000a900473ffffffffffffffffffffffffffffffffffffffff169050919050565b600033905090565b6109eb8383836001611145565b505050565b6000806109fc84611108565b9050600073ffffffffffffffffffffffffffffffffffffffff168373ffffffffffffffffffffffffffffffffffffffff1614610a3e57610a3d81848661130a565b5b600073ffffffffffffffffffffffffffffffffffffffff168173ffffffffffffffffffffffffffffffffffffffff1614610acf57610a80600085600080611145565b6001600360008373ffffffffffffffffffffffffffffffffffffffff1673ffffffffffffffffffffffffffffffffffffffff168152602001908152602001600020600082825403925050819055505b600073ffffffffffffffffffffffffffffffffffffffff168573ffffffffffffffffffffffffffffffffffffffff1614610b52576001600360008773ffffffffffffffffffffffffffffffffffffffff1673ffffffffffffffffffffffffffffffffffffffff168152602001908152602001600020600082825401925050819055505b846002600086815260200190815260200160002060006101000a81548173ffffffffffffffffffffffffffffffffffffffff021916908373ffffffffffffffffffffffffffffffffffffffff160217905550838573ffffffffffffffffffffffffffffffffffffffff168273ffffffffffffffffffffffffffffffffffffffff167fddf252ad1be2c89b69c2b068fc378daa952ba7f163c4a11628f55a4df523b3ef60405160405180910390a4809150509392505050565b600073ffffffffffffffffffffffffffffffffffffffff168273ffffffffffffffffffffffffffffffffffffffff1603610c7c5760006040517f64a0ae92000000000000000000000000000000000000000000000000000000008152600401610c739190611807565b60405180910390fd5b6000610c8a838360006109f0565b9050600073ffffffffffffffffffffffffffffffffffffffff168173ffffffffffffffffffffffffffffffffffffffff1614610cfe5760006040517f73c6ac6e000000000000000000000000000000000000000000000000000000008152600401610cf59190611807565b60405180910390fd5b505050565b600073ffffffffffffffffffffffffffffffffffffffff168273ffffffffffffffffffffffffffffffffffffffff1603610d7457816040517f5b08ba18000000000000000000000000000000000000000000000000000000008152600401610d6b9190611807565b60405180910390fd5b80600560008573ffffffffffffffffffffffffffffffffffffffff1673ffffffffffffffffffffffffffffffffffffffff16815260200190815260200160002060008473ffffffffffffffffffffffffffffffffffffffff1673ffffffffffffffffffffffffffffffffffffffff16815260200190815260200160002060006101000a81548160ff0219169083151502179055508173ffffffffffffffffffffffffffffffffffffffff168373ffffffffffffffffffffffffffffffffffffffff167f17307eab39ab6107e8899845ad3d59bd9653f200f220920489ca2b5937696c3183604051610e659190611696565b60405180910390a3505050565b60008373ffffffffffffffffffffffffffffffffffffffff163b111561101c578273ffffffffffffffffffffffffffffffffffffffff1663150b7a02868685856040518563ffffffff1660e01b8152600401610ed19493929190611d5f565b6020604051808303816000875af1925050508015610f0d57506040513d601f19601f82011682018060405250810190610f0a9190611dc0565b60015b610f91573d8060008114610f3d576040519150601f19603f3d011682016040523d82523d6000602084013e610f42565b606091505b506000815103610f8957836040517f64a0ae92000000000000000000000000000000000000000000000000000000008152600401610f809190611807565b60405180910390fd5b805160208201fd5b63150b7a0260e01b7bffffffffffffffffffffffffffffffffffffffffffffffffffffffff1916817bffffffffffffffffffffffffffffffffffffffffffffffffffffffff19161461101a57836040517f64a0ae920000000000000000000000000000000000000000000000000000000081526004016110119190611807565b60405180910390fd5b505b5050505050565b606060405180602001604052806000815250905090565b606060006001611049846113ce565b01905060008167ffffffffffffffff811115611068576110676119ae565b5b6040519080825280601f01601f19166020018201604052801561109a5781602001600182028036833780820191505090505b509050600082602083010190505b6001156110fd578080600190039150507f3031323334353637383961626364656600000000000000000000000000000000600a86061a8153600a85816110f1576110f0611ded565b5b049450600085036110a8575b819350505050919050565b60006002600083815260200190815260200160002060009054906101000a900473ffffffffffffffffffffffffffffffffffffffff169050919050565b808061117e5750600073ffffffffffffffffffffffffffffffffffffffff168273ffffffffffffffffffffffffffffffffffffffff1614155b156112b257600061118e84610911565b9050600073ffffffffffffffffffffffffffffffffffffffff168373ffffffffffffffffffffffffffffffffffffffff16141580156111f957508273ffffffffffffffffffffffffffffffffffffffff168173ffffffffffffffffffffffffffffffffffffffff1614155b801561120c575061120a8184610813565b155b1561124e57826040517fa9fbf51f0000000000000000000000000000000000000000000000000000000081526004016112459190611807565b60405180910390fd5b81156112b057838573ffffffffffffffffffffffffffffffffffffffff168273ffffffffffffffffffffffffffffffffffffffff167f8c5be1e5ebec7d5bd14f71427d1e84f3dd0314c0f7b2291e5b200ac8c7c3b92560405160405180910390a45b505b836004600085815260200190815260200160002060006101000a81548173ffffffffffffffffffffffffffffffffffffffff021916908373ffffffffffffffffffffffffffffffffffffffff16021790555050505050565b611315838383611521565b6113c957600073ffffffffffffffffffffffffffffffffffffffff168373ffffffffffffffffffffffffffffffffffffffff160361138a57806040517f7e273289000000000000000000000000000000000000000000000000000000008152600401611381919061191d565b60405180910390fd5b81816040517f177e802f0000000000000000000000000000000000000000000000000000000081526004016113c0929190611e1c565b60405180910390fd5b505050565b600080600090507a184f03e93ff9f4daa797ed6e38ed64bf6a1f010000000000000000831061142c577a184f03e93ff9f4daa797ed6e38ed64bf6a1f010000000000000000838161142257611421611ded565b5b0492506040810190505b6d04ee2d6d415b85acef81000000008310611469576d04ee2d6d415b85acef8100000000838161145f5761145e611ded565b5b0492506020810190505b662386f26fc10000831061149857662386f26fc10000838161148e5761148d611ded565b5b0492506010810190505b6305f5e10083106114c1576305f5e10083816114b7576114b6611ded565b5b0492506008810190505b61271083106114e65761271083816114dc576114db611ded565b5b0492506004810190505b6064831061150957606483816114ff576114fe611ded565b5b0492506002810190505b600a8310611518576001810190505b80915050919050565b60008073ffffffffffffffffffffffffffffffffffffffff168373ffffffffffffffffffffffffffffffffffffffff16141580156115d957508273ffffffffffffffffffffffffffffffffffffffff168473ffffffffffffffffffffffffffffffffffffffff16148061159a57506115998484610813565b5b806115d857508273ffffffffffffffffffffffffffffffffffffffff166115c083610999565b73ffffffffffffffffffffffffffffffffffffffff16145b5b90509392505050565b6000604051905090565b600080fd5b600080fd5b60007fffffffff0000000000000000000000000000000000000000000000000000000082169050919050565b61162b816115f6565b811461163657600080fd5b50565b60008135905061164881611622565b92915050565b600060208284031215611664576116636115ec565b5b600061167284828501611639565b91505092915050565b60008115159050919050565b6116908161167b565b82525050565b60006020820190506116ab6000830184611687565b92915050565b600081519050919050565b600082825260208201905092915050565b60005b838110156116eb5780820151818401526020810190506116d0565b60008484015250505050565b6000601f19601f8301169050919050565b6000611713826116b1565b61171d81856116bc565b935061172d8185602086016116cd565b611736816116f7565b840191505092915050565b6000602082019050818103600083015261175b8184611708565b905092915050565b6000819050919050565b61177681611763565b811461178157600080fd5b50565b6000813590506117938161176d565b92915050565b6000602082840312156117af576117ae6115ec565b5b60006117bd84828501611784565b91505092915050565b600073ffffffffffffffffffffffffffffffffffffffff82169050919050565b60006117f1826117c6565b9050919050565b611801816117e6565b82525050565b600060208201905061181c60008301846117f8565b92915050565b61182b816117e6565b811461183657600080fd5b50565b60008135905061184881611822565b92915050565b60008060408385031215611865576118646115ec565b5b600061187385828601611839565b925050602061188485828601611784565b9150509250929050565b6000806000606084860312156118a7576118a66115ec565b5b60006118b586828701611839565b93505060206118c686828701611839565b92505060406118d786828701611784565b9150509250925092565b6000602082840312156118f7576118f66115ec565b5b600061190584828501611839565b91505092915050565b61191781611763565b82525050565b6000602082019050611932600083018461190e565b92915050565b6119418161167b565b811461194c57600080fd5b50565b60008135905061195e81611938565b92915050565b6000806040838503121561197b5761197a6115ec565b5b600061198985828601611839565b925050602061199a8582860161194f565b9150509250929050565b600080fd5b600080fd5b7f4e487b7100000000000000000000000000000000000000000000000000000000600052604160045260246000fd5b6119e6826116f7565b810181811067ffffffffffffffff82111715611a0557611a046119ae565b5b80604052505050565b6000611a186115e2565b9050611a2482826119dd565b919050565b600067ffffffffffffffff821115611a4457611a436119ae565b5b611a4d826116f7565b9050602081019050919050565b82818337600083830152505050565b6000611a7c611a7784611a29565b611a0e565b905082815260208101848484011115611a9857611a976119a9565b5b611aa3848285611a5a565b509392505050565b600082601f830112611ac057611abf6119a4565b5b8135611ad0848260208601611a69565b91505092915050565b60008060008060808587031215611af357611af26115ec565b5b6000611b0187828801611839565b9450506020611b1287828801611839565b9350506040611b2387828801611784565b925050606085013567ffffffffffffffff811115611b4457611b436115f1565b5b611b5087828801611aab565b91505092959194509250565b60008060408385031215611b7357611b726115ec565b5b6000611b8185828601611839565b9250506020611b9285828601611839565b9150509250929050565b7f4e487b7100000000000000000000000000000000000000000000000000000000600052602260045260246000fd5b60006002820490506001821680611be357607f821691505b602082108103611bf657611bf5611b9c565b5b50919050565b6000606082019050611c1160008301866117f8565b611c1e602083018561190e565b611c2b60408301846117f8565b949350505050565b7f4e487b7100000000000000000000000000000000000000000000000000000000600052601160045260246000fd5b6000611c6d82611763565b91507fffffffffffffffffffffffffffffffffffffffffffffffffffffffffffffffff8203611c9f57611c9e611c33565b5b600182019050919050565b600081905092915050565b6000611cc0826116b1565b611cca8185611caa565b9350611cda8185602086016116cd565b80840191505092915050565b6000611cf28285611cb5565b9150611cfe8284611cb5565b91508190509392505050565b600081519050919050565b600082825260208201905092915050565b6000611d3182611d0a565b611d3b8185611d15565b9350611d4b8185602086016116cd565b611d54816116f7565b840191505092915050565b6000608082019050611d7460008301876117f8565b611d8160208301866117f8565b611d8e604083018561190e565b8181036060830152611da08184611d26565b905095945050505050565b600081519050611dba81611622565b92915050565b600060208284031215611dd657611dd56115ec565b5b6000611de484828501611dab565b91505092915050565b7f4e487b7100000000000000000000000000000000000000000000000000000000600052601260045260246000fd5b6000604082019050611e3160008301856117f8565b611e3e602083018461190e565b939250505056fea26469706673582212200f3e8b2298392a37c3b22334ecb623dac9e642474be0d4a87bf31fbdfe0f910f64736f6c63430008140033",
  "linkReferences": {},
  "deployedLinkReferences": {}
}