{
  "_format": "hh-sol-artifact-1",
  "contractName": "MockNFT",
  "sourceName": "contracts/MockNFT.sol",
  "abi": [
    {
      "inputs": [],
      "stateMutability": "nonpayable",
      "type": "constructor"
    },
    {
      "inputs": [
        {
          "internalType": "address",
          "name": "sender",
          "type": "address"
        },
        {
          "internalType": "uint256",
          "name": "tokenId",
          "type": "uint256"
        },
        {
          "internalType": "address",
          "name": "owner",
          "type": "address"
        }
      ],
      "name": "ERC721IncorrectOwner",
      "type": "error"
    },
    {
      "inputs": [
        {
          "internalType": "address",
          "name": "operator",
          "type": "address"
        },
        {
          "internalType": "uint256",
          "name": "tokenId",
          "type": "uint256"
        }
      ],
      "name": "ERC721InsufficientApproval",
      "type": "error"
    },
    {
      "inputs": [
        {
          "internalType": "address",
          "name": "approver",
          "type": "address"
        }
      ],
      "name": "ERC721InvalidApprover",
      "type": "error"
    },
    {
      "inputs": [
        {
          "internalType": "address",
          "name": "operator",
          "type": "address"
        }
      ],
      "name": "ERC721InvalidOperator",
      "type": "error"
    },
    {
      "inputs": [
        {
          "internalType": "address",
          "name": "owner",
          "type": "address"
        }
      ],
      "name": "ERC721InvalidOwner",
      "type": "error"
    },
    {
      "inputs": [
        {
          "internalType": "address",
          "name": "receiver",
          "type": "address"
        }
      ],
      "name": "ERC721InvalidReceiver",
      "type": "error"
    },
    {
      "inputs": [
        {
          "internalType": "address",
          "name": "sender",
          "type": "address"
        }
      ],
      "name": "ERC721InvalidSender",
      "type": "error"
    },
    {
      "inputs": [
        {
          "internalType": "uint256",
          "name": "tokenId",
          "type": "uint256"
        }
      ],
      "name": "ERC721NonexistentToken",
      "type": "error"
    },
    {
      "anonymous": false,
      "inputs": [
        {
          "indexed": true,
          "internalType": "address",
          "name": "owner",
          "type": "address"
        },
        {
          "indexed": true,
          "internalType": "address",
          "name": "approved",
          "type": "address"
        },
        {
          "indexed": true,
          "internalType": "uint256",
          "name": "tokenId",
          "type": "uint256"
        }
      ],
      "name": "Approval",
      "type": "event"
    },
    {
      "anonymous": false,
      "inputs": [
        {
          "indexed": true,
          "internalType": "address",
          "name": "owner",
          "type": "address"
        },
        {
          "indexed": true,
          "internalType": "address",
          "name": "operator",
          "type": "address"
        },
        {
          "indexed": false,
          "internalType": "bool",
          "name": "approved",
          "type": "bool"
        }
      ],
      "name": "ApprovalForAll",
      "type": "event"
    },
    {
      "anonymous": false,
      "inputs": [
        {
          "indexed": false,
          "internalType": "uint256",
          "name": "_fromTokenId",
          "type": "uint256"
        },
        {
          "indexed": false,
          "internalType": "uint256",
          "name": "_toTokenId",
          "type": "uint256"
        }
      ],
      "name": "BatchMetadataUpdate",
      "type": "event"
    },
    {
      "anonymous": false,
      "inputs": [
        {
          "indexed": false,
          "internalType": "uint256",
          "name": "_tokenId",
          "type": "uint256"
        }
      ],
      "name": "MetadataUpdate",
      "type": "event"
    },
    {
      "anonymous": false,
      "inputs": [
        {
          "indexed": true,
          "internalType": "address",
          "name": "from",
          "type": "address"
        },
        {
          "indexed": true,
          "internalType": "address",
          "name": "to",
          "type": "address"
        },
        {
          "indexed": true,
          "internalType": "uint256",
          "name": "tokenId",
          "type": "uint256"
        }
      ],
      "name": "Transfer",
      "type": "event"
    },
    {
      "inputs": [
        {
          "internalType": "address",
          "name": "to",
          "type": "address"
        },
        {
          "internalType": "uint256",
          "name": "tokenId",
          "type": "uint256"
        }
      ],
      "name": "approve",
      "outputs": [],
      "stateMutability": "nonpayable",
      "type": "function"
    },
    {
      "inputs": [
        {
          "internalType": "address",
          "name": "owner",
          "type": "address"
        }
      ],
      "name": "balanceOf",
      "outputs": [
        {
          "internalType": "uint256",
          "name": "",
          "type": "uint256"
        }
      ],
      "stateMutability": "view",
      "type": "function"
    },
    {
      "inputs": [
        {
          "internalType": "uint256",
          "name": "tokenId",
          "type": "uint256"
        }
      ],
      "name": "getApproved",
      "outputs": [
        {
          "internalType": "address",
          "name": "",
          "type": "address"
        }
      ],
      "stateMutability": "view",
      "type": "function"
    },
    {
      "inputs": [
        {
          "internalType": "address",
          "name": "owner",
          "type": "address"
        },
        {
          "internalType": "address",
          "name": "operator",
          "type": "address"
        }
      ],
      "name": "isApprovedForAll",
      "outputs": [
        {
          "internalType": "bool",
          "name": "",
          "type": "bool"
        }
      ],
      "stateMutability": "view",
      "type": "function"
    },
    {
      "inputs": [
        {
          "internalType": "address",
          "name": "to",
          "type": "address"
        },
        {
          "internalType": "string",
          "name": "tokenURI",
          "type": "string"
        }
      ],
      "name": "mint",
      "outputs": [],
      "stateMutability": "nonpayable",
      "type": "function"
    },
    {
      "inputs": [],
      "name": "name",
      "outputs": [
        {
          "internalType": "string",
          "name": "",
          "type": "string"
        }
      ],
      "stateMutability": "view",
      "type": "function"
    },
    {
      "inputs": [
        {
          "internalType": "uint256",
          "name": "tokenId",
          "type": "uint256"
        }
      ],
      "name": "ownerOf",
      "outputs": [
        {
          "internalType": "address",
          "name": "",
          "type": "address"
        }
      ],
      "stateMutability": "view",
      "type": "function"
    },
    {
      "inputs": [
        {
          "internalType": "address",
          "name": "from",
          "type": "address"
        },
        {
          "internalType": "address",
          "name": "to",
          "type": "address"
        },
        {
          "internalType": "uint256",
          "name": "tokenId",
          "type": "uint256"
        }
      ],
      "name": "safeTransferFrom",
      "outputs": [],
      "stateMutability": "nonpayable",
      "type": "function"
    },
    {
      "inputs": [
        {
          "internalType": "address",
          "name": "from",
          "type": "address"
        },
        {
          "internalType": "address",
          "name": "to",
          "type": "address"
        },
        {
          "internalType": "uint256",
          "name": "tokenId",
          "type": "uint256"
        },
        {
          "internalType": "bytes",
          "name": "data",
          "type": "bytes"
        }
      ],
      "name": "safeTransferFrom",
      "outputs": [],
      "stateMutability": "nonpayable",
      "type": "function"
    },
    {
      "inputs": [
        {
          "internalType": "address",
          "name": "operator",
          "type": "address"
        },
        {
          "internalType": "bool",
          "name": "approved",
          "type": "bool"
        }
      ],
      "name": "setApprovalForAll",
      "outputs": [],
      "stateMutability": "nonpayable",
      "type": "function"
    },
    {
      "inputs": [
        {
          "internalType": "bytes4",
          "name": "interfaceId",
          "type": "bytes4"
        }
      ],
      "name": "supportsInterface",
      "outputs": [
        {
          "internalType": "bool",
          "name": "",
          "type": "bool"
        }
      ],
      "stateMutability": "view",
      "type": "function"
    },
    {
      "inputs": [],
      "name": "symbol",
      "outputs": [
        {
          "internalType": "string",
          "name": "",
          "type": "string"
        }
      ],
      "stateMutability": "view",
      "type": "function"
    },
    {
      "inputs": [],
      "name": "tokenIdCounter",
      "outputs": [
        {
          "internalType": "uint256",
          "name": "",
          "type": "uint256"
        }
      ],
      "stateMutability": "view",
      "type": "function"
    },
    {
      "inputs": [
        {
          "internalType": "uint256",
          "name": "tokenId",
          "type": "uint256"
        }
      ],
      "name": "tokenURI",
      "outputs": [
        {
          "internalType": "string",
          "name": "",
          "type": "string"
        }
      ],
      "stateMutability": "view",
      "type": "function"
    },
    {
      "inputs": [
        {
          "internalType": "address",
          "name": "from",
          "type": "address"
        },
        {
          "internalType": "address",
          "name": "to",
          "type": "address"
        },
        {
          "internalType": "uint256",
          "name": "tokenId",
          "type": "uint256"
        }
      ],
      "name": "transferFrom",
      "outputs": [],
      "stateMutability": "nonpayable",
      "type": "function"
    }
  ],
  "bytecode": "0x60806040523480156200001157600080fd5b506040518060400160405280600581526020017f4d794e46540000000000000000000000000000000000000000000000000000008152506040518060400160405280600481526020017f4d4e46540000000000000000000000000000000000000000000000000000000081525081600090816200008f919062000324565b508060019081620000a1919062000324565b5050506200040b565b600081519050919050565b7f4e487b7100000000000000000000000000000000000000000000000000000000600052604160045260246000fd5b7f4e487b7100000000000000000000000000000000000000000000000000000000600052602260045260246000fd5b600060028204905060018216806200012c57607f821691505b602082108103620001425762000141620000e4565b5b50919050565b60008190508160005260206000209050919050565b60006020601f8301049050919050565b600082821b905092915050565b600060088302620001ac7fffffffffffffffffffffffffffffffffffffffffffffffffffffffffffffffff826200016d565b620001b886836200016d565b95508019841693508086168417925050509392505050565b6000819050919050565b6000819050919050565b600062000205620001ff620001f984620001d0565b620001da565b620001d0565b9050919050565b6000819050919050565b6200022183620001e4565b6200023962000230826200020c565b8484546200017a565b825550505050565b600090565b6200025062000241565b6200025d81848462000216565b505050565b5b8181101562000285576200027960008262000246565b60018101905062000263565b5050565b601f821115620002d4576200029e8162000148565b620002a9846200015d565b81016020851015620002b9578190505b620002d1620002c8856200015d565b83018262000262565b50505b505050565b600082821c905092915050565b6000620002f960001984600802620002d9565b1980831691505092915050565b6000620003148383620002e6565b9150826002028217905092915050565b6200032f82620000aa565b67ffffffffffffffff8111156200034b576200034a620000b5565b5b62000357825462000113565b6200036482828562000289565b600060209050601f8311600181146200039c576000841562000387578287015190505b62000393858262000306565b86555062000403565b601f198416620003ac8662000148565b60005b82811015620003d657848901518255600182019150602085019450602081019050620003af565b86831015620003f65784890151620003f2601f891682620002e6565b8355505b6001600288020188555050505b505050505050565b6123d3806200041b6000396000f3fe608060405234801561001057600080fd5b50600436106100f55760003560e01c806370a0823111610097578063b88d4fde11610066578063b88d4fde14610284578063c87b56dd146102a0578063d0def521146102d0578063e985e9c5146102ec576100f5565b806370a08231146101fc57806395d89b411461022c57806398bdf6f51461024a578063a22cb46514610268576100f5565b8063095ea7b3116100d3578063095ea7b31461017857806323b872dd1461019457806342842e0e146101b05780636352211e146101cc576100f5565b806301ffc9a7146100fa57806306fdde031461012a578063081812fc14610148575b600080fd5b610114600480360381019061010f919061182b565b61031c565b6040516101219190611873565b60405180910390f35b61013261037d565b60405161013f919061191e565b60405180910390f35b610162600480360381019061015d9190611976565b61040f565b60405161016f91906119e4565b60405180910390f35b610192600480360381019061018d9190611a2b565b61042b565b005b6101ae60048036038101906101a99190611a6b565b610441565b005b6101ca60048036038101906101c59190611a6b565b610543565b005b6101e660048036038101906101e19190611976565b610563565b6040516101f391906119e4565b60405180910390f35b61021660048036038101906102119190611abe565b610575565b6040516102239190611afa565b60405180910390f35b61023461062f565b604051610241919061191e565b60405180910390f35b6102526106c1565b60405161025f9190611afa565b60405180910390f35b610282600480360381019061027d9190611b41565b6106c7565b005b61029e60048036038101906102999190611cb6565b6106dd565b005b6102ba60048036038101906102b59190611976565b610702565b6040516102c7919061191e565b60405180910390f35b6102ea60048036038101906102e59190611dda565b610815565b005b61030660048036038101906103019190611e36565b610849565b6040516103139190611873565b60405180910390f35b6000634906490660e01b7bffffffffffffffffffffffffffffffffffffffffffffffffffffffff1916827bffffffffffffffffffffffffffffffffffffffffffffffffffffffff191614806103765750610375826108dd565b5b9050919050565b60606000805461038c90611ea5565b80601f01602080910402602001604051908101604052809291908181526020018280546103b890611ea5565b80156104055780601f106103da57610100808354040283529160200191610405565b820191906000526020600020905b8154815290600101906020018083116103e857829003601f168201915b5050505050905090565b600061041a826109bf565b5061042482610a47565b9050919050565b61043d8282610438610a84565b610a8c565b5050565b600073ffffffffffffffffffffffffffffffffffffffff168273ffffffffffffffffffffffffffffffffffffffff16036104b35760006040517f64a0ae920000000000000000000000000000000000000000000000000000000081526004016104aa91906119e4565b60405180910390fd5b60006104c783836104c2610a84565b610a9e565b90508373ffffffffffffffffffffffffffffffffffffffff168173ffffffffffffffffffffffffffffffffffffffff161461053d578382826040517f64283d7b00000000000000000000000000000000000000000000000000000000815260040161053493929190611ed6565b60405180910390fd5b50505050565b61055e838383604051806020016040528060008152506106dd565b505050565b600061056e826109bf565b9050919050565b60008073ffffffffffffffffffffffffffffffffffffffff168273ffffffffffffffffffffffffffffffffffffffff16036105e85760006040517f89c62b640000000000000000000000000000000000000000000000000000000081526004016105df91906119e4565b60405180910390fd5b600360008373ffffffffffffffffffffffffffffffffffffffff1673ffffffffffffffffffffffffffffffffffffffff168152602001908152602001600020549050919050565b60606001805461063e90611ea5565b80601f016020809104026020016040519081016040528092919081815260200182805461066a90611ea5565b80156106b75780601f1061068c576101008083540402835291602001916106b7565b820191906000526020600020905b81548152906001019060200180831161069a57829003601f168201915b5050505050905090565b60075481565b6106d96106d2610a84565b8383610cb8565b5050565b6106e8848484610441565b6106fc6106f3610a84565b85858585610e27565b50505050565b606061070d826109bf565b50600060066000848152602001908152602001600020805461072e90611ea5565b80601f016020809104026020016040519081016040528092919081815260200182805461075a90611ea5565b80156107a75780601f1061077c576101008083540402835291602001916107a7565b820191906000526020600020905b81548152906001019060200180831161078a57829003601f168201915b5050505050905060006107b8610fd8565b905060008151036107cd578192505050610810565b6000825111156108025780826040516020016107ea929190611f49565b60405160208183030381529060405292505050610810565b61080b84610fef565b925050505b919050565b61082182600754611058565b61082d60075482611151565b6007600081548092919061084090611f9c565b91905055505050565b6000600560008473ffffffffffffffffffffffffffffffffffffffff1673ffffffffffffffffffffffffffffffffffffffff16815260200190815260200160002060008373ffffffffffffffffffffffffffffffffffffffff1673ffffffffffffffffffffffffffffffffffffffff16815260200190815260200160002060009054906101000a900460ff16905092915050565b60007f80ac58cd000000000000000000000000000000000000000000000000000000007bffffffffffffffffffffffffffffffffffffffffffffffffffffffff1916827bffffffffffffffffffffffffffffffffffffffffffffffffffffffff191614806109a857507f5b5e139f000000000000000000000000000000000000000000000000000000007bffffffffffffffffffffffffffffffffffffffffffffffffffffffff1916827bffffffffffffffffffffffffffffffffffffffffffffffffffffffff1916145b806109b857506109b7826111ad565b5b9050919050565b6000806109cb83611217565b9050600073ffffffffffffffffffffffffffffffffffffffff168173ffffffffffffffffffffffffffffffffffffffff1603610a3e57826040517f7e273289000000000000000000000000000000000000000000000000000000008152600401610a359190611afa565b60405180910390fd5b80915050919050565b60006004600083815260200190815260200160002060009054906101000a900473ffffffffffffffffffffffffffffffffffffffff169050919050565b600033905090565b610a998383836001611254565b505050565b600080610aaa84611217565b9050600073ffffffffffffffffffffffffffffffffffffffff168373ffffffffffffffffffffffffffffffffffffffff1614610aec57610aeb818486611419565b5b600073ffffffffffffffffffffffffffffffffffffffff168173ffffffffffffffffffffffffffffffffffffffff1614610b7d57610b2e600085600080611254565b6001600360008373ffffffffffffffffffffffffffffffffffffffff1673ffffffffffffffffffffffffffffffffffffffff168152602001908152602001600020600082825403925050819055505b600073ffffffffffffffffffffffffffffffffffffffff168573ffffffffffffffffffffffffffffffffffffffff1614610c00576001600360008773ffffffffffffffffffffffffffffffffffffffff1673ffffffffffffffffffffffffffffffffffffffff168152602001908152602001600020600082825401925050819055505b846002600086815260200190815260200160002060006101000a81548173ffffffffffffffffffffffffffffffffffffffff021916908373ffffffffffffffffffffffffffffffffffffffff160217905550838573ffffffffffffffffffffffffffffffffffffffff168273ffffffffffffffffffffffffffffffffffffffff167fddf252ad1be2c89b69c2b068fc378daa952ba7f163c4a11628f55a4df523b3ef60405160405180910390a4809150509392505050565b600073ffffffffffffffffffffffffffffffffffffffff168273ffffffffffffffffffffffffffffffffffffffff1603610d2957816040517f5b08ba18000000000000000000000000000000000000000000000000000000008152600401610d2091906119e4565b60405180910390fd5b80600560008573ffffffffffffffffffffffffffffffffffffffff1673ffffffffffffffffffffffffffffffffffffffff16815260200190815260200160002060008473ffffffffffffffffffffffffffffffffffffffff1673ffffffffffffffffffffffffffffffffffffffff16815260200190815260200160002060006101000a81548160ff0219169083151502179055508173ffffffffffffffffffffffffffffffffffffffff168373ffffffffffffffffffffffffffffffffffffffff167f17307eab39ab6107e8899845ad3d59bd9653f200f220920489ca2b5937696c3183604051610e1a9190611873565b60405180910390a3505050565b60008373ffffffffffffffffffffffffffffffffffffffff163b1115610fd1578273ffffffffffffffffffffffffffffffffffffffff1663150b7a02868685856040518563ffffffff1660e01b8152600401610e869493929190612039565b6020604051808303816000875af1925050508015610ec257506040513d601f19601f82011682018060405250810190610ebf919061209a565b60015b610f46573d8060008114610ef2576040519150601f19603f3d011682016040523d82523d6000602084013e610ef7565b606091505b506000815103610f3e57836040517f64a0ae92000000000000000000000000000000000000000000000000000000008152600401610f3591906119e4565b60405180910390fd5b805160208201fd5b63150b7a0260e01b7bffffffffffffffffffffffffffffffffffffffffffffffffffffffff1916817bffffffffffffffffffffffffffffffffffffffffffffffffffffffff191614610fcf57836040517f64a0ae92000000000000000000000000000000000000000000000000000000008152600401610fc691906119e4565b60405180910390fd5b505b5050505050565b606060405180602001604052806000815250905090565b6060610ffa826109bf565b506000611005610fd8565b905060008151116110255760405180602001604052806000815250611050565b8061102f846114dd565b604051602001611040929190611f49565b6040516020818303038152906040525b915050919050565b600073ffffffffffffffffffffffffffffffffffffffff168273ffffffffffffffffffffffffffffffffffffffff16036110ca5760006040517f64a0ae920000000000000000000000000000000000000000000000000000000081526004016110c191906119e4565b60405180910390fd5b60006110d883836000610a9e565b9050600073ffffffffffffffffffffffffffffffffffffffff168173ffffffffffffffffffffffffffffffffffffffff161461114c5760006040517f73c6ac6e00000000000000000000000000000000000000000000000000000000815260040161114391906119e4565b60405180910390fd5b505050565b806006600084815260200190815260200160002090816111719190612273565b507ff8e1a15aba9398e019f0b49df1a4fde98ee17ae345cb5f6b5e2c27f5033e8ce7826040516111a19190611afa565b60405180910390a15050565b60007f01ffc9a7000000000000000000000000000000000000000000000000000000007bffffffffffffffffffffffffffffffffffffffffffffffffffffffff1916827bffffffffffffffffffffffffffffffffffffffffffffffffffffffff1916149050919050565b60006002600083815260200190815260200160002060009054906101000a900473ffffffffffffffffffffffffffffffffffffffff169050919050565b808061128d5750600073ffffffffffffffffffffffffffffffffffffffff168273ffffffffffffffffffffffffffffffffffffffff1614155b156113c157600061129d846109bf565b9050600073ffffffffffffffffffffffffffffffffffffffff168373ffffffffffffffffffffffffffffffffffffffff161415801561130857508273ffffffffffffffffffffffffffffffffffffffff168173ffffffffffffffffffffffffffffffffffffffff1614155b801561131b57506113198184610849565b155b1561135d57826040517fa9fbf51f00000000000000000000000000000000000000000000000000000000815260040161135491906119e4565b60405180910390fd5b81156113bf57838573ffffffffffffffffffffffffffffffffffffffff168273ffffffffffffffffffffffffffffffffffffffff167f8c5be1e5ebec7d5bd14f71427d1e84f3dd0314c0f7b2291e5b200ac8c7c3b92560405160405180910390a45b505b836004600085815260200190815260200160002060006101000a81548173ffffffffffffffffffffffffffffffffffffffff021916908373ffffffffffffffffffffffffffffffffffffffff16021790555050505050565b6114248383836115ab565b6114d857600073ffffffffffffffffffffffffffffffffffffffff168373ffffffffffffffffffffffffffffffffffffffff160361149957806040517f7e2732890000000000000000000000000000000000000000000000000000000081526004016114909190611afa565b60405180910390fd5b81816040517f177e802f0000000000000000000000000000000000000000000000000000000081526004016114cf929190612345565b60405180910390fd5b505050565b6060600060016114ec8461166c565b01905060008167ffffffffffffffff81111561150b5761150a611b8b565b5b6040519080825280601f01601f19166020018201604052801561153d5781602001600182028036833780820191505090505b509050600082602083010190505b6001156115a0578080600190039150507f3031323334353637383961626364656600000000000000000000000000000000600a86061a8153600a85816115945761159361236e565b5b0494506000850361154b575b819350505050919050565b60008073ffffffffffffffffffffffffffffffffffffffff168373ffffffffffffffffffffffffffffffffffffffff161415801561166357508273ffffffffffffffffffffffffffffffffffffffff168473ffffffffffffffffffffffffffffffffffffffff16148061162457506116238484610849565b5b8061166257508273ffffffffffffffffffffffffffffffffffffffff1661164a83610a47565b73ffffffffffffffffffffffffffffffffffffffff16145b5b90509392505050565b600080600090507a184f03e93ff9f4daa797ed6e38ed64bf6a1f01000000000000000083106116ca577a184f03e93ff9f4daa797ed6e38ed64bf6a1f01000000000000000083816116c0576116bf61236e565b5b0492506040810190505b6d04ee2d6d415b85acef81000000008310611707576d04ee2d6d415b85acef810000000083816116fd576116fc61236e565b5b0492506020810190505b662386f26fc10000831061173657662386f26fc10000838161172c5761172b61236e565b5b0492506010810190505b6305f5e100831061175f576305f5e10083816117555761175461236e565b5b0492506008810190505b612710831061178457612710838161177a5761177961236e565b5b0492506004810190505b606483106117a7576064838161179d5761179c61236e565b5b0492506002810190505b600a83106117b6576001810190505b80915050919050565b6000604051905090565b600080fd5b600080fd5b60007fffffffff0000000000000000000000000000000000000000000000000000000082169050919050565b611808816117d3565b811461181357600080fd5b50565b600081359050611825816117ff565b92915050565b600060208284031215611841576118406117c9565b5b600061184f84828501611816565b91505092915050565b60008115159050919050565b61186d81611858565b82525050565b60006020820190506118886000830184611864565b92915050565b600081519050919050565b600082825260208201905092915050565b60005b838110156118c85780820151818401526020810190506118ad565b60008484015250505050565b6000601f19601f8301169050919050565b60006118f08261188e565b6118fa8185611899565b935061190a8185602086016118aa565b611913816118d4565b840191505092915050565b6000602082019050818103600083015261193881846118e5565b905092915050565b6000819050919050565b61195381611940565b811461195e57600080fd5b50565b6000813590506119708161194a565b92915050565b60006020828403121561198c5761198b6117c9565b5b600061199a84828501611961565b91505092915050565b600073ffffffffffffffffffffffffffffffffffffffff82169050919050565b60006119ce826119a3565b9050919050565b6119de816119c3565b82525050565b60006020820190506119f960008301846119d5565b92915050565b611a08816119c3565b8114611a1357600080fd5b50565b600081359050611a25816119ff565b92915050565b60008060408385031215611a4257611a416117c9565b5b6000611a5085828601611a16565b9250506020611a6185828601611961565b9150509250929050565b600080600060608486031215611a8457611a836117c9565b5b6000611a9286828701611a16565b9350506020611aa386828701611a16565b9250506040611ab486828701611961565b9150509250925092565b600060208284031215611ad457611ad36117c9565b5b6000611ae284828501611a16565b91505092915050565b611af481611940565b82525050565b6000602082019050611b0f6000830184611aeb565b92915050565b611b1e81611858565b8114611b2957600080fd5b50565b600081359050611b3b81611b15565b92915050565b60008060408385031215611b5857611b576117c9565b5b6000611b6685828601611a16565b9250506020611b7785828601611b2c565b9150509250929050565b600080fd5b600080fd5b7f4e487b7100000000000000000000000000000000000000000000000000000000600052604160045260246000fd5b611bc3826118d4565b810181811067ffffffffffffffff82111715611be257611be1611b8b565b5b80604052505050565b6000611bf56117bf565b9050611c018282611bba565b919050565b600067ffffffffffffffff821115611c2157611c20611b8b565b5b611c2a826118d4565b9050602081019050919050565b82818337600083830152505050565b6000611c59611c5484611c06565b611beb565b905082815260208101848484011115611c7557611c74611b86565b5b611c80848285611c37565b509392505050565b600082601f830112611c9d57611c9c611b81565b5b8135611cad848260208601611c46565b91505092915050565b60008060008060808587031215611cd057611ccf6117c9565b5b6000611cde87828801611a16565b9450506020611cef87828801611a16565b9350506040611d0087828801611961565b925050606085013567ffffffffffffffff811115611d2157611d206117ce565b5b611d2d87828801611c88565b91505092959194509250565b600067ffffffffffffffff821115611d5457611d53611b8b565b5b611d5d826118d4565b9050602081019050919050565b6000611d7d611d7884611d39565b611beb565b905082815260208101848484011115611d9957611d98611b86565b5b611da4848285611c37565b509392505050565b600082601f830112611dc157611dc0611b81565b5b8135611dd1848260208601611d6a565b91505092915050565b60008060408385031215611df157611df06117c9565b5b6000611dff85828601611a16565b925050602083013567ffffffffffffffff811115611e2057611e1f6117ce565b5b611e2c85828601611dac565b9150509250929050565b60008060408385031215611e4d57611e4c6117c9565b5b6000611e5b85828601611a16565b9250506020611e6c85828601611a16565b9150509250929050565b7f4e487b7100000000000000000000000000000000000000000000000000000000600052602260045260246000fd5b60006002820490506001821680611ebd57607f821691505b602082108103611ed057611ecf611e76565b5b50919050565b6000606082019050611eeb60008301866119d5565b611ef86020830185611aeb565b611f0560408301846119d5565b949350505050565b600081905092915050565b6000611f238261188e565b611f2d8185611f0d565b9350611f3d8185602086016118aa565b80840191505092915050565b6000611f558285611f18565b9150611f618284611f18565b91508190509392505050565b7f4e487b7100000000000000000000000000000000000000000000000000000000600052601160045260246000fd5b6000611fa782611940565b91507fffffffffffffffffffffffffffffffffffffffffffffffffffffffffffffffff8203611fd957611fd8611f6d565b5b600182019050919050565b600081519050919050565b600082825260208201905092915050565b600061200b82611fe4565b6120158185611fef565b93506120258185602086016118aa565b61202e816118d4565b840191505092915050565b600060808201905061204e60008301876119d5565b61205b60208301866119d5565b6120686040830185611aeb565b818103606083015261207a8184612000565b905095945050505050565b600081519050612094816117ff565b92915050565b6000602082840312156120b0576120af6117c9565b5b60006120be84828501612085565b91505092915050565b60008190508160005260206000209050919050565b60006020601f8301049050919050565b600082821b905092915050565b6000600883026121297fffffffffffffffffffffffffffffffffffffffffffffffffffffffffffffffff826120ec565b61213386836120ec565b95508019841693508086168417925050509392505050565b6000819050919050565b600061217061216b61216684611940565b61214b565b611940565b9050919050565b6000819050919050565b61218a83612155565b61219e61219682612177565b8484546120f9565b825550505050565b600090565b6121b36121a6565b6121be818484612181565b505050565b5b818110156121e2576121d76000826121ab565b6001810190506121c4565b5050565b601f821115612227576121f8816120c7565b612201846120dc565b81016020851015612210578190505b61222461221c856120dc565b8301826121c3565b50505b505050565b600082821c905092915050565b600061224a6000198460080261222c565b1980831691505092915050565b60006122638383612239565b9150826002028217905092915050565b61227c8261188e565b67ffffffffffffffff81111561229557612294611b8b565b5b61229f8254611ea5565b6122aa8282856121e6565b600060209050601f8311600181146122dd57600084156122cb578287015190505b6122d58582612257565b86555061233d565b601f1984166122eb866120c7565b60005b82811015612313578489015182556001820191506020850194506020810190506122ee565b86831015612330578489015161232c601f891682612239565b8355505b6001600288020188555050505b505050505050565b600060408201905061235a60008301856119d5565b6123676020830184611aeb565b9392505050565b7f4e487b7100000000000000000000000000000000000000000000000000000000600052601260045260246000fdfea2646970667358221220cb4c87a2d212029520d718c8fce6c3192407dbfafa3ec565ae220a85b2bd9ce364736f6c63430008140033",
  "linkReferences": {},
  "deployedLinkReferences": {}
}