{
  "_format": "hh-sol-artifact-1",
  "contractName": "MockNFT",
  "sourceName": "contracts/MockNFT.sol",
  "abi": [
    {
      "inputs": [],
      "stateMutability": "nonpayable",
      "type": "constructor"
    },
    {
      "inputs": [
        {
          "internalType": "address",
          "name": "sender",
          "type": "address"
        },
        {
          "internalType": "uint256",
          "name": "tokenId",
          "type": "uint256"
        },
        {
          "internalType": "address",
          "name": "owner",
          "type": "address"
        }
      ],
      "name": "ERC721IncorrectOwner",
      "type": "error"
    },
    {
      "inputs": [
        {
          "internalType": "address",
          "name": "operator",
          "type": "address"
        },
        {
          "internalType": "uint256",
          "name": "tokenId",
          "type": "uint256"
        }
      ],
      "name": "ERC721InsufficientApproval",
      "type": "error"
    },
    {
      "inputs": [
        {
          "internalType": "address",
          "name": "approver",
          "type": "address"
        }
      ],
      "name": "ERC721InvalidApprover",
      "type": "error"
    },
    {
      "inputs": [
        {
          "internalType": "address",
          "name": "operator",
          "type": "address"
        }
      ],
      "name": "ERC721InvalidOperator",
      "type": "error"
    },
    {
      "inputs": [
        {
          "internalType": "address",
          "name": "owner",
          "type": "address"
        }
      ],
      "name": "ERC721InvalidOwner",
      "type": "error"
    },
    {
      "inputs": [
        {
          "internalType": "address",
          "name": "receiver",
          "type": "address"
        }
      ],
      "name": "ERC721InvalidReceiver",
      "type": "error"
    },
    {
      "inputs": [
        {
          "internalType": "address",
          "name": "sender",
          "type": "address"
        }
      ],
      "name": "ERC721InvalidSender",
      "type": "error"
    },
    {
      "inputs": [
        {
          "internalType": "uint256",
          "name": "tokenId",
          "type": "uint256"
        }
      ],
      "name": "ERC721NonexistentToken",
      "type": "error"
    },
    {
      "anonymous": false,
      "inputs": [
        {
          "indexed": true,
          "internalType": "address",
          "name": "owner",
          "type": "address"
        },
        {
          "indexed": true,
          "internalType": "address",
          "name": "approved",
          "type": "address"
        },
        {
          "indexed": true,
          "internalType": "uint256",
          "name": "tokenId",
          "type": "uint256"
        }
      ],
      "name": "Approval",
      "type": "event"
    },
    {
      "anonymous": false,
      "inputs": [
        {
          "indexed": true,
          "internalType": "address",
          "name": "owner",
          "type": "address"
        },
        {
          "indexed": true,
          "internalType": "address",
          "name": "operator",
          "type": "address"
        },
        {
          "indexed": false,
          "internalType": "bool",
          "name": "approved",
          "type": "bool"
        }
      ],
      "name": "ApprovalForAll",
      "type": "event"
    },
    {
      "anonymous": false,
      "inputs": [
        {
          "indexed": false,
          "internalType": "uint256",
          "name": "_fromTokenId",
          "type": "uint256"
        },
        {
          "indexed": false,
          "internalType": "uint256",
          "name": "_toTokenId",
          "type": "uint256"
        }
      ],
      "name": "BatchMetadataUpdate",
      "type": "event"
    },
    {
      "anonymous": false,
      "inputs": [
        {
          "indexed": false,
          "internalType": "uint256",
          "name": "_tokenId",
          "type": "uint256"
        }
      ],
      "name": "MetadataUpdate",
      "type": "event"
    },
    {
      "anonymous": false,
      "inputs": [
        {
          "indexed": true,
          "internalType": "address",
          "name": "from",
          "type": "address"
        },
        {
          "indexed": true,
          "internalType": "address",
          "name": "to",
          "type": "address"
        },
        {
          "indexed": true,
          "internalType": "uint256",
          "name": "tokenId",
          "type": "uint256"
        }
      ],
      "name": "Transfer",
      "type": "event"
    },
    {
      "inputs": [
        {
          "internalType": "address",
          "name": "to",
          "type": "address"
        },
        {
          "internalType": "uint256",
          "name": "tokenId",
          "type": "uint256"
        }
      ],
      "name": "approve",
      "outputs": [],
      "stateMutability": "nonpayable",
      "type": "function"
    },
    {
      "inputs": [
        {
          "internalType": "address",
          "name": "owner",
          "type": "address"
        }
      ],
      "name": "balanceOf",
      "outputs": [
        {
          "internalType": "uint256",
          "name": "",
          "type": "uint256"
        }
      ],
      "stateMutability": "view",
      "type": "function"
    },
    {
      "inputs": [
        {
          "internalType": "uint256",
          "name": "tokenId",
          "type": "uint256"
        }
      ],
      "name": "getApproved",
      "outputs": [
        {
          "internalType": "address",
          "name": "",
          "type": "address"
        }
      ],
      "stateMutability": "view",
      "type": "function"
    },
    {
      "inputs": [
        {
          "internalType": "address",
          "name": "owner",
          "type": "address"
        },
        {
          "internalType": "address",
          "name": "operator",
          "type": "address"
        }
      ],
      "name": "isApprovedForAll",
      "outputs": [
        {
          "internalType": "bool",
          "name": "",
          "type": "bool"
        }
      ],
      "stateMutability": "view",
      "type": "function"
    },
    {
      "inputs": [
        {
          "internalType": "address",
          "name": "to",
          "type": "address"
        },
        {
          "internalType": "string",
          "name": "tokenURI",
          "type": "string"
        }
      ],
      "name": "mint",
      "outputs": [],
      "stateMutability": "nonpayable",
      "type": "function"
    },
    {
      "inputs": [],
      "name": "name",
      "outputs": [
        {
          "internalType": "string",
          "name": "",
          "type": "string"
        }
      ],
      "stateMutability": "view",
      "type": "function"
    },
    {
      "inputs": [
        {
          "internalType": "uint256",
          "name": "tokenId",
          "type": "uint256"
        }
      ],
      "name": "ownerOf",
      "outputs": [
        {
          "internalType": "address",
          "name": "",
          "type": "address"
        }
      ],
      "stateMutability": "view",
      "type": "function"
    },
    {
      "inputs": [
        {
          "internalType": "address",
          "name": "from",
          "type": "address"
        },
        {
          "internalType": "address",
          "name": "to",
          "type": "address"
        },
        {
          "internalType": "uint256",
          "name": "tokenId",
          "type": "uint256"
        }
      ],
      "name": "safeTransferFrom",
      "outputs": [],
      "stateMutability": "nonpayable",
      "type": "function"
    },
    {
      "inputs": [
        {
          "internalType": "address",
          "name": "from",
          "type": "address"
        },
        {
          "internalType": "address",
          "name": "to",
          "type": "address"
        },
        {
          "internalType": "uint256",
          "name": "tokenId",
          "type": "uint256"
        },
        {
          "internalType": "bytes",
          "name": "data",
          "type": "bytes"
        }
      ],
      "name": "safeTransferFrom",
      "outputs": [],
      "stateMutability": "nonpayable",
      "type": "function"
    },
    {
      "inputs": [
        {
          "internalType": "address",
          "name": "operator",
          "type": "address"
        },
        {
          "internalType": "bool",
          "name": "approved",
          "type": "bool"
        }
      ],
      "name": "setApprovalForAll",
      "outputs": [],
      "stateMutability": "nonpayable",
      "type": "function"
    },
    {
      "inputs": [
        {
          "internalType": "bytes4",
          "name": "interfaceId",
          "type": "bytes4"
        }
      ],
      "name": "supportsInterface",
      "outputs": [
        {
          "internalType": "bool",
          "name": "",
          "type": "bool"
        }
      ],
      "stateMutability": "view",
      "type": "function"
    },
    {
      "inputs": [],
      "name": "symbol",
      "outputs": [
        {
          "internalType": "string",
          "name": "",
          "type": "string"
        }
      ],
      "stateMutability": "view",
      "type": "function"
    },
    {
      "inputs": [],
      "name": "tokenIdCounter",
      "outputs": [
        {
          "internalType": "uint256",
          "name": "",
          "type": "uint256"
        }
      ],
      "stateMutability": "view",
      "type": "function"
    },
    {
      "inputs": [
        {
          "internalType": "uint256",
          "name": "tokenId",
          "type": "uint256"
        }
      ],
      "name": "tokenURI",
      "outputs": [
        {
          "internalType": "string",
          "name": "",
          "type": "string"
        }
      ],
      "stateMutability": "view",
      "type": "function"
    },
    {
      "inputs": [
        {
          "internalType": "address",
          "name": "owner",
          "type": "address"
        }
      ],
      "name": "tokensOfOwner",
      "outputs": [
        {
          "internalType": "uint256[]",
          "name": "",
          "type": "uint256[]"
        }
      ],
      "stateMutability": "view",
      "type": "function"
    },
    {
      "inputs": [
        {
          "internalType": "address",
          "name": "from",
          "type": "address"
        },
        {
          "internalType": "address",
          "name": "to",
          "type": "address"
        },
        {
          "internalType": "uint256",
          "name": "tokenId",
          "type": "uint256"
        }
      ],
      "name": "transferFrom",
      "outputs": [],
      "stateMutability": "nonpayable",
      "type": "function"
    }
  ],
  "bytecode": "0x60806040523480156200001157600080fd5b506040518060400160405280600581526020017f4d794e46540000000000000000000000000000000000000000000000000000008152506040518060400160405280600481526020017f4d4e46540000000000000000000000000000000000000000000000000000000081525081600090816200008f919062000324565b508060019081620000a1919062000324565b5050506200040b565b600081519050919050565b7f4e487b7100000000000000000000000000000000000000000000000000000000600052604160045260246000fd5b7f4e487b7100000000000000000000000000000000000000000000000000000000600052602260045260246000fd5b600060028204905060018216806200012c57607f821691505b602082108103620001425762000141620000e4565b5b50919050565b60008190508160005260206000209050919050565b60006020601f8301049050919050565b600082821b905092915050565b600060088302620001ac7fffffffffffffffffffffffffffffffffffffffffffffffffffffffffffffffff826200016d565b620001b886836200016d565b95508019841693508086168417925050509392505050565b6000819050919050565b6000819050919050565b600062000205620001ff620001f984620001d0565b620001da565b620001d0565b9050919050565b6000819050919050565b6200022183620001e4565b6200023962000230826200020c565b8484546200017a565b825550505050565b600090565b6200025062000241565b6200025d81848462000216565b505050565b5b8181101562000285576200027960008262000246565b60018101905062000263565b5050565b601f821115620002d4576200029e8162000148565b620002a9846200015d565b81016020851015620002b9578190505b620002d1620002c8856200015d565b83018262000262565b50505b505050565b600082821c905092915050565b6000620002f960001984600802620002d9565b1980831691505092915050565b6000620003148383620002e6565b9150826002028217905092915050565b6200032f82620000aa565b67ffffffffffffffff8111156200034b576200034a620000b5565b5b62000357825462000113565b6200036482828562000289565b600060209050601f8311600181146200039c576000841562000387578287015190505b62000393858262000306565b86555062000403565b601f198416620003ac8662000148565b60005b82811015620003d657848901518255600182019150602085019450602081019050620003af565b86831015620003f65784890151620003f2601f891682620002e6565b8355505b6001600288020188555050505b505050505050565b612610806200041b6000396000f3fe608060405234801561001057600080fd5b50600436106101005760003560e01c80638462151c11610097578063b88d4fde11610066578063b88d4fde146102bf578063c87b56dd146102db578063d0def5211461030b578063e985e9c51461032757610100565b80638462151c1461023757806395d89b411461026757806398bdf6f514610285578063a22cb465146102a357610100565b806323b872dd116100d357806323b872dd1461019f57806342842e0e146101bb5780636352211e146101d757806370a082311461020757610100565b806301ffc9a71461010557806306fdde0314610135578063081812fc14610153578063095ea7b314610183575b600080fd5b61011f600480360381019061011a9190611959565b610357565b60405161012c91906119a1565b60405180910390f35b61013d6103b8565b60405161014a9190611a4c565b60405180910390f35b61016d60048036038101906101689190611aa4565b61044a565b60405161017a9190611b12565b60405180910390f35b61019d60048036038101906101989190611b59565b610466565b005b6101b960048036038101906101b49190611b99565b61047c565b005b6101d560048036038101906101d09190611b99565b61057e565b005b6101f160048036038101906101ec9190611aa4565b61059e565b6040516101fe9190611b12565b60405180910390f35b610221600480360381019061021c9190611bec565b6105b0565b60405161022e9190611c28565b60405180910390f35b610251600480360381019061024c9190611bec565b61066a565b60405161025e9190611d01565b60405180910390f35b61026f61075d565b60405161027c9190611a4c565b60405180910390f35b61028d6107ef565b60405161029a9190611c28565b60405180910390f35b6102bd60048036038101906102b89190611d4f565b6107f5565b005b6102d960048036038101906102d49190611ec4565b61080b565b005b6102f560048036038101906102f09190611aa4565b610830565b6040516103029190611a4c565b60405180910390f35b61032560048036038101906103209190611fe8565b610943565b005b610341600480360381019061033c9190612044565b610977565b60405161034e91906119a1565b60405180910390f35b6000634906490660e01b7bffffffffffffffffffffffffffffffffffffffffffffffffffffffff1916827bffffffffffffffffffffffffffffffffffffffffffffffffffffffff191614806103b157506103b082610a0b565b5b9050919050565b6060600080546103c7906120b3565b80601f01602080910402602001604051908101604052809291908181526020018280546103f3906120b3565b80156104405780601f1061041557610100808354040283529160200191610440565b820191906000526020600020905b81548152906001019060200180831161042357829003601f168201915b5050505050905090565b600061045582610aed565b5061045f82610b75565b9050919050565b6104788282610473610bb2565b610bba565b5050565b600073ffffffffffffffffffffffffffffffffffffffff168273ffffffffffffffffffffffffffffffffffffffff16036104ee5760006040517f64a0ae920000000000000000000000000000000000000000000000000000000081526004016104e59190611b12565b60405180910390fd5b600061050283836104fd610bb2565b610bcc565b90508373ffffffffffffffffffffffffffffffffffffffff168173ffffffffffffffffffffffffffffffffffffffff1614610578578382826040517f64283d7b00000000000000000000000000000000000000000000000000000000815260040161056f939291906120e4565b60405180910390fd5b50505050565b6105998383836040518060200160405280600081525061080b565b505050565b60006105a982610aed565b9050919050565b60008073ffffffffffffffffffffffffffffffffffffffff168273ffffffffffffffffffffffffffffffffffffffff16036106235760006040517f89c62b6400000000000000000000000000000000000000000000000000000000815260040161061a9190611b12565b60405180910390fd5b600360008373ffffffffffffffffffffffffffffffffffffffff1673ffffffffffffffffffffffffffffffffffffffff168152602001908152602001600020549050919050565b60606000610677836105b0565b905060008167ffffffffffffffff81111561069557610694611d99565b5b6040519080825280602002602001820160405280156106c35781602001602082028036833780820191505090505b5090506000805b600754811015610751578573ffffffffffffffffffffffffffffffffffffffff166106f482610de6565b73ffffffffffffffffffffffffffffffffffffffff160361073e57808383815181106107235761072261211b565b5b602002602001018181525050818061073a90612179565b9250505b808061074990612179565b9150506106ca565b50819350505050919050565b60606001805461076c906120b3565b80601f0160208091040260200160405190810160405280929190818152602001828054610798906120b3565b80156107e55780601f106107ba576101008083540402835291602001916107e5565b820191906000526020600020905b8154815290600101906020018083116107c857829003601f168201915b5050505050905090565b60075481565b610807610800610bb2565b8383610e23565b5050565b61081684848461047c565b61082a610821610bb2565b85858585610f92565b50505050565b606061083b82610aed565b50600060066000848152602001908152602001600020805461085c906120b3565b80601f0160208091040260200160405190810160405280929190818152602001828054610888906120b3565b80156108d55780601f106108aa576101008083540402835291602001916108d5565b820191906000526020600020905b8154815290600101906020018083116108b857829003601f168201915b5050505050905060006108e6611143565b905060008151036108fb57819250505061093e565b6000825111156109305780826040516020016109189291906121fd565b6040516020818303038152906040529250505061093e565b6109398461115a565b925050505b919050565b61094f826007546111c3565b61095b600754826112bc565b6007600081548092919061096e90612179565b91905055505050565b6000600560008473ffffffffffffffffffffffffffffffffffffffff1673ffffffffffffffffffffffffffffffffffffffff16815260200190815260200160002060008373ffffffffffffffffffffffffffffffffffffffff1673ffffffffffffffffffffffffffffffffffffffff16815260200190815260200160002060009054906101000a900460ff16905092915050565b60007f80ac58cd000000000000000000000000000000000000000000000000000000007bffffffffffffffffffffffffffffffffffffffffffffffffffffffff1916827bffffffffffffffffffffffffffffffffffffffffffffffffffffffff19161480610ad657507f5b5e139f000000000000000000000000000000000000000000000000000000007bffffffffffffffffffffffffffffffffffffffffffffffffffffffff1916827bffffffffffffffffffffffffffffffffffffffffffffffffffffffff1916145b80610ae65750610ae582611318565b5b9050919050565b600080610af983610de6565b9050600073ffffffffffffffffffffffffffffffffffffffff168173ffffffffffffffffffffffffffffffffffffffff1603610b6c57826040517f7e273289000000000000000000000000000000000000000000000000000000008152600401610b639190611c28565b60405180910390fd5b80915050919050565b60006004600083815260200190815260200160002060009054906101000a900473ffffffffffffffffffffffffffffffffffffffff169050919050565b600033905090565b610bc78383836001611382565b505050565b600080610bd884610de6565b9050600073ffffffffffffffffffffffffffffffffffffffff168373ffffffffffffffffffffffffffffffffffffffff1614610c1a57610c19818486611547565b5b600073ffffffffffffffffffffffffffffffffffffffff168173ffffffffffffffffffffffffffffffffffffffff1614610cab57610c5c600085600080611382565b6001600360008373ffffffffffffffffffffffffffffffffffffffff1673ffffffffffffffffffffffffffffffffffffffff168152602001908152602001600020600082825403925050819055505b600073ffffffffffffffffffffffffffffffffffffffff168573ffffffffffffffffffffffffffffffffffffffff1614610d2e576001600360008773ffffffffffffffffffffffffffffffffffffffff1673ffffffffffffffffffffffffffffffffffffffff168152602001908152602001600020600082825401925050819055505b846002600086815260200190815260200160002060006101000a81548173ffffffffffffffffffffffffffffffffffffffff021916908373ffffffffffffffffffffffffffffffffffffffff160217905550838573ffffffffffffffffffffffffffffffffffffffff168273ffffffffffffffffffffffffffffffffffffffff167fddf252ad1be2c89b69c2b068fc378daa952ba7f163c4a11628f55a4df523b3ef60405160405180910390a4809150509392505050565b60006002600083815260200190815260200160002060009054906101000a900473ffffffffffffffffffffffffffffffffffffffff169050919050565b600073ffffffffffffffffffffffffffffffffffffffff168273ffffffffffffffffffffffffffffffffffffffff1603610e9457816040517f5b08ba18000000000000000000000000000000000000000000000000000000008152600401610e8b9190611b12565b60405180910390fd5b80600560008573ffffffffffffffffffffffffffffffffffffffff1673ffffffffffffffffffffffffffffffffffffffff16815260200190815260200160002060008473ffffffffffffffffffffffffffffffffffffffff1673ffffffffffffffffffffffffffffffffffffffff16815260200190815260200160002060006101000a81548160ff0219169083151502179055508173ffffffffffffffffffffffffffffffffffffffff168373ffffffffffffffffffffffffffffffffffffffff167f17307eab39ab6107e8899845ad3d59bd9653f200f220920489ca2b5937696c3183604051610f8591906119a1565b60405180910390a3505050565b60008373ffffffffffffffffffffffffffffffffffffffff163b111561113c578273ffffffffffffffffffffffffffffffffffffffff1663150b7a02868685856040518563ffffffff1660e01b8152600401610ff19493929190612276565b6020604051808303816000875af192505050801561102d57506040513d601f19601f8201168201806040525081019061102a91906122d7565b60015b6110b1573d806000811461105d576040519150601f19603f3d011682016040523d82523d6000602084013e611062565b606091505b5060008151036110a957836040517f64a0ae920000000000000000000000000000000000000000000000000000000081526004016110a09190611b12565b60405180910390fd5b805160208201fd5b63150b7a0260e01b7bffffffffffffffffffffffffffffffffffffffffffffffffffffffff1916817bffffffffffffffffffffffffffffffffffffffffffffffffffffffff19161461113a57836040517f64a0ae920000000000000000000000000000000000000000000000000000000081526004016111319190611b12565b60405180910390fd5b505b5050505050565b606060405180602001604052806000815250905090565b606061116582610aed565b506000611170611143565b9050600081511161119057604051806020016040528060008152506111bb565b8061119a8461160b565b6040516020016111ab9291906121fd565b6040516020818303038152906040525b915050919050565b600073ffffffffffffffffffffffffffffffffffffffff168273ffffffffffffffffffffffffffffffffffffffff16036112355760006040517f64a0ae9200000000000000000000000000000000000000000000000000000000815260040161122c9190611b12565b60405180910390fd5b600061124383836000610bcc565b9050600073ffffffffffffffffffffffffffffffffffffffff168173ffffffffffffffffffffffffffffffffffffffff16146112b75760006040517f73c6ac6e0000000000000000000000000000000000000000000000000000000081526004016112ae9190611b12565b60405180910390fd5b505050565b806006600084815260200190815260200160002090816112dc91906124b0565b507ff8e1a15aba9398e019f0b49df1a4fde98ee17ae345cb5f6b5e2c27f5033e8ce78260405161130c9190611c28565b60405180910390a15050565b60007f01ffc9a7000000000000000000000000000000000000000000000000000000007bffffffffffffffffffffffffffffffffffffffffffffffffffffffff1916827bffffffffffffffffffffffffffffffffffffffffffffffffffffffff1916149050919050565b80806113bb5750600073ffffffffffffffffffffffffffffffffffffffff168273ffffffffffffffffffffffffffffffffffffffff1614155b156114ef5760006113cb84610aed565b9050600073ffffffffffffffffffffffffffffffffffffffff168373ffffffffffffffffffffffffffffffffffffffff161415801561143657508273ffffffffffffffffffffffffffffffffffffffff168173ffffffffffffffffffffffffffffffffffffffff1614155b801561144957506114478184610977565b155b1561148b57826040517fa9fbf51f0000000000000000000000000000000000000000000000000000000081526004016114829190611b12565b60405180910390fd5b81156114ed57838573ffffffffffffffffffffffffffffffffffffffff168273ffffffffffffffffffffffffffffffffffffffff167f8c5be1e5ebec7d5bd14f71427d1e84f3dd0314c0f7b2291e5b200ac8c7c3b92560405160405180910390a45b505b836004600085815260200190815260200160002060006101000a81548173ffffffffffffffffffffffffffffffffffffffff021916908373ffffffffffffffffffffffffffffffffffffffff16021790555050505050565b6115528383836116d9565b61160657600073ffffffffffffffffffffffffffffffffffffffff168373ffffffffffffffffffffffffffffffffffffffff16036115c757806040517f7e2732890000000000000000000000000000000000000000000000000000000081526004016115be9190611c28565b60405180910390fd5b81816040517f177e802f0000000000000000000000000000000000000000000000000000000081526004016115fd929190612582565b60405180910390fd5b505050565b60606000600161161a8461179a565b01905060008167ffffffffffffffff81111561163957611638611d99565b5b6040519080825280601f01601f19166020018201604052801561166b5781602001600182028036833780820191505090505b509050600082602083010190505b6001156116ce578080600190039150507f3031323334353637383961626364656600000000000000000000000000000000600a86061a8153600a85816116c2576116c16125ab565b5b04945060008503611679575b819350505050919050565b60008073ffffffffffffffffffffffffffffffffffffffff168373ffffffffffffffffffffffffffffffffffffffff161415801561179157508273ffffffffffffffffffffffffffffffffffffffff168473ffffffffffffffffffffffffffffffffffffffff16148061175257506117518484610977565b5b8061179057508273ffffffffffffffffffffffffffffffffffffffff1661177883610b75565b73ffffffffffffffffffffffffffffffffffffffff16145b5b90509392505050565b600080600090507a184f03e93ff9f4daa797ed6e38ed64bf6a1f01000000000000000083106117f8577a184f03e93ff9f4daa797ed6e38ed64bf6a1f01000000000000000083816117ee576117ed6125ab565b5b0492506040810190505b6d04ee2d6d415b85acef81000000008310611835576d04ee2d6d415b85acef8100000000838161182b5761182a6125ab565b5b0492506020810190505b662386f26fc10000831061186457662386f26fc10000838161185a576118596125ab565b5b0492506010810190505b6305f5e100831061188d576305f5e1008381611883576118826125ab565b5b0492506008810190505b61271083106118b25761271083816118a8576118a76125ab565b5b0492506004810190505b606483106118d557606483816118cb576118ca6125ab565b5b0492506002810190505b600a83106118e4576001810190505b80915050919050565b6000604051905090565b600080fd5b600080fd5b60007fffffffff0000000000000000000000000000000000000000000000000000000082169050919050565b61193681611901565b811461194157600080fd5b50565b6000813590506119538161192d565b92915050565b60006020828403121561196f5761196e6118f7565b5b600061197d84828501611944565b91505092915050565b60008115159050919050565b61199b81611986565b82525050565b60006020820190506119b66000830184611992565b92915050565b600081519050919050565b600082825260208201905092915050565b60005b838110156119f65780820151818401526020810190506119db565b60008484015250505050565b6000601f19601f8301169050919050565b6000611a1e826119bc565b611a2881856119c7565b9350611a388185602086016119d8565b611a4181611a02565b840191505092915050565b60006020820190508181036000830152611a668184611a13565b905092915050565b6000819050919050565b611a8181611a6e565b8114611a8c57600080fd5b50565b600081359050611a9e81611a78565b92915050565b600060208284031215611aba57611ab96118f7565b5b6000611ac884828501611a8f565b91505092915050565b600073ffffffffffffffffffffffffffffffffffffffff82169050919050565b6000611afc82611ad1565b9050919050565b611b0c81611af1565b82525050565b6000602082019050611b276000830184611b03565b92915050565b611b3681611af1565b8114611b4157600080fd5b50565b600081359050611b5381611b2d565b92915050565b60008060408385031215611b7057611b6f6118f7565b5b6000611b7e85828601611b44565b9250506020611b8f85828601611a8f565b9150509250929050565b600080600060608486031215611bb257611bb16118f7565b5b6000611bc086828701611b44565b9350506020611bd186828701611b44565b9250506040611be286828701611a8f565b9150509250925092565b600060208284031215611c0257611c016118f7565b5b6000611c1084828501611b44565b91505092915050565b611c2281611a6e565b82525050565b6000602082019050611c3d6000830184611c19565b92915050565b600081519050919050565b600082825260208201905092915050565b6000819050602082019050919050565b611c7881611a6e565b82525050565b6000611c8a8383611c6f565b60208301905092915050565b6000602082019050919050565b6000611cae82611c43565b611cb88185611c4e565b9350611cc383611c5f565b8060005b83811015611cf4578151611cdb8882611c7e565b9750611ce683611c96565b925050600181019050611cc7565b5085935050505092915050565b60006020820190508181036000830152611d1b8184611ca3565b905092915050565b611d2c81611986565b8114611d3757600080fd5b50565b600081359050611d4981611d23565b92915050565b60008060408385031215611d6657611d656118f7565b5b6000611d7485828601611b44565b9250506020611d8585828601611d3a565b9150509250929050565b600080fd5b600080fd5b7f4e487b7100000000000000000000000000000000000000000000000000000000600052604160045260246000fd5b611dd182611a02565b810181811067ffffffffffffffff82111715611df057611def611d99565b5b80604052505050565b6000611e036118ed565b9050611e0f8282611dc8565b919050565b600067ffffffffffffffff821115611e2f57611e2e611d99565b5b611e3882611a02565b9050602081019050919050565b82818337600083830152505050565b6000611e67611e6284611e14565b611df9565b905082815260208101848484011115611e8357611e82611d94565b5b611e8e848285611e45565b509392505050565b600082601f830112611eab57611eaa611d8f565b5b8135611ebb848260208601611e54565b91505092915050565b60008060008060808587031215611ede57611edd6118f7565b5b6000611eec87828801611b44565b9450506020611efd87828801611b44565b9350506040611f0e87828801611a8f565b925050606085013567ffffffffffffffff811115611f2f57611f2e6118fc565b5b611f3b87828801611e96565b91505092959194509250565b600067ffffffffffffffff821115611f6257611f61611d99565b5b611f6b82611a02565b9050602081019050919050565b6000611f8b611f8684611f47565b611df9565b905082815260208101848484011115611fa757611fa6611d94565b5b611fb2848285611e45565b509392505050565b600082601f830112611fcf57611fce611d8f565b5b8135611fdf848260208601611f78565b91505092915050565b60008060408385031215611fff57611ffe6118f7565b5b600061200d85828601611b44565b925050602083013567ffffffffffffffff81111561202e5761202d6118fc565b5b61203a85828601611fba565b9150509250929050565b6000806040838503121561205b5761205a6118f7565b5b600061206985828601611b44565b925050602061207a85828601611b44565b9150509250929050565b7f4e487b7100000000000000000000000000000000000000000000000000000000600052602260045260246000fd5b600060028204905060018216806120cb57607f821691505b6020821081036120de576120dd612084565b5b50919050565b60006060820190506120f96000830186611b03565b6121066020830185611c19565b6121136040830184611b03565b949350505050565b7f4e487b7100000000000000000000000000000000000000000000000000000000600052603260045260246000fd5b7f4e487b7100000000000000000000000000000000000000000000000000000000600052601160045260246000fd5b600061218482611a6e565b91507fffffffffffffffffffffffffffffffffffffffffffffffffffffffffffffffff82036121b6576121b561214a565b5b600182019050919050565b600081905092915050565b60006121d7826119bc565b6121e181856121c1565b93506121f18185602086016119d8565b80840191505092915050565b600061220982856121cc565b915061221582846121cc565b91508190509392505050565b600081519050919050565b600082825260208201905092915050565b600061224882612221565b612252818561222c565b93506122628185602086016119d8565b61226b81611a02565b840191505092915050565b600060808201905061228b6000830187611b03565b6122986020830186611b03565b6122a56040830185611c19565b81810360608301526122b7818461223d565b905095945050505050565b6000815190506122d18161192d565b92915050565b6000602082840312156122ed576122ec6118f7565b5b60006122fb848285016122c2565b91505092915050565b60008190508160005260206000209050919050565b60006020601f8301049050919050565b600082821b905092915050565b6000600883026123667fffffffffffffffffffffffffffffffffffffffffffffffffffffffffffffffff82612329565b6123708683612329565b95508019841693508086168417925050509392505050565b6000819050919050565b60006123ad6123a86123a384611a6e565b612388565b611a6e565b9050919050565b6000819050919050565b6123c783612392565b6123db6123d3826123b4565b848454612336565b825550505050565b600090565b6123f06123e3565b6123fb8184846123be565b505050565b5b8181101561241f576124146000826123e8565b600181019050612401565b5050565b601f8211156124645761243581612304565b61243e84612319565b8101602085101561244d578190505b61246161245985612319565b830182612400565b50505b505050565b600082821c905092915050565b600061248760001984600802612469565b1980831691505092915050565b60006124a08383612476565b9150826002028217905092915050565b6124b9826119bc565b67ffffffffffffffff8111156124d2576124d1611d99565b5b6124dc82546120b3565b6124e7828285612423565b600060209050601f83116001811461251a5760008415612508578287015190505b6125128582612494565b86555061257a565b601f19841661252886612304565b60005b828110156125505784890151825560018201915060208501945060208101905061252b565b8683101561256d5784890151612569601f891682612476565b8355505b6001600288020188555050505b505050505050565b60006040820190506125976000830185611b03565b6125a46020830184611c19565b9392505050565b7f4e487b7100000000000000000000000000000000000000000000000000000000600052601260045260246000fdfea2646970667358221220b5b9e1cbe530d9119c9a5473b08c86984810519954ecca7cd3d413f50de1c01864736f6c63430008140033",
  "linkReferences": {},
  "deployedLinkReferences": {}
}