{
  "_format": "hh-sol-artifact-1",
  "contractName": "NFTMarketplace",
  "sourceName": "contracts/NFTMarketplace.sol",
  "abi": [
    {
      "inputs": [],
      "stateMutability": "nonpayable",
      "type": "constructor"
    },
    {
      "inputs": [
        {
          "internalType": "address",
          "name": "owner",
          "type": "address"
        }
      ],
      "name": "OwnableInvalidOwner",
      "type": "error"
    },
    {
      "inputs": [
        {
          "internalType": "address",
          "name": "account",
          "type": "address"
        }
      ],
      "name": "OwnableUnauthorizedAccount",
      "type": "error"
    },
    {
      "inputs": [],
      "name": "ReentrancyGuardReentrantCall",
      "type": "error"
    },
    {
      "anonymous": false,
      "inputs": [
        {
          "indexed": true,
          "internalType": "address",
          "name": "nftAddress",
          "type": "address"
        },
        {
          "indexed": true,
          "internalType": "uint256",
          "name": "tokenId",
          "type": "uint256"
        },
        {
          "indexed": false,
          "internalType": "address",
          "name": "seller",
          "type": "address"
        }
      ],
      "name": "ItemCancelled",
      "type": "event"
    },
    {
      "anonymous": false,
      "inputs": [
        {
          "indexed": true,
          "internalType": "address",
          "name": "nftAddress",
          "type": "address"
        },
        {
          "indexed": true,
          "internalType": "uint256",
          "name": "tokenId",
          "type": "uint256"
        },
        {
          "indexed": false,
          "internalType": "address",
          "name": "seller",
          "type": "address"
        },
        {
          "indexed": false,
          "internalType": "uint256",
          "name": "price",
          "type": "uint256"
        }
      ],
      "name": "ItemListed",
      "type": "event"
    },
    {
      "anonymous": false,
      "inputs": [
        {
          "indexed": true,
          "internalType": "address",
          "name": "nftAddress",
          "type": "address"
        },
        {
          "indexed": true,
          "internalType": "uint256",
          "name": "tokenId",
          "type": "uint256"
        },
        {
          "indexed": false,
          "internalType": "address",
          "name": "buyer",
          "type": "address"
        },
        {
          "indexed": false,
          "internalType": "uint256",
          "name": "price",
          "type": "uint256"
        }
      ],
      "name": "ItemSold",
      "type": "event"
    },
    {
      "anonymous": false,
      "inputs": [
        {
          "indexed": true,
          "internalType": "address",
          "name": "nftAddress",
          "type": "address"
        },
        {
          "indexed": true,
          "internalType": "uint256",
          "name": "tokenId",
          "type": "uint256"
        },
        {
          "indexed": false,
          "internalType": "uint256",
          "name": "newPrice",
          "type": "uint256"
        }
      ],
      "name": "ItemUpdated",
      "type": "event"
    },
    {
      "anonymous": false,
      "inputs": [
        {
          "indexed": true,
          "internalType": "address",
          "name": "previousOwner",
          "type": "address"
        },
        {
          "indexed": true,
          "internalType": "address",
          "name": "newOwner",
          "type": "address"
        }
      ],
      "name": "OwnershipTransferred",
      "type": "event"
    },
    {
      "anonymous": false,
      "inputs": [
        {
          "indexed": true,
          "internalType": "address",
          "name": "seller",
          "type": "address"
        },
        {
          "indexed": false,
          "internalType": "uint256",
          "name": "amount",
          "type": "uint256"
        }
      ],
      "name": "ProceedsWithdrawn",
      "type": "event"
    },
    {
      "inputs": [
        {
          "internalType": "address",
          "name": "nftAddress",
          "type": "address"
        },
        {
          "internalType": "uint256",
          "name": "tokenId",
          "type": "uint256"
        }
      ],
      "name": "buyItem",
      "outputs": [],
      "stateMutability": "payable",
      "type": "function"
    },
    {
      "inputs": [
        {
          "internalType": "address",
          "name": "nftAddress",
          "type": "address"
        },
        {
          "internalType": "uint256",
          "name": "tokenId",
          "type": "uint256"
        }
      ],
      "name": "cancelListing",
      "outputs": [],
      "stateMutability": "nonpayable",
      "type": "function"
    },
    {
      "inputs": [
        {
          "internalType": "address",
          "name": "nftAddress",
          "type": "address"
        },
        {
          "internalType": "uint256",
          "name": "tokenId",
          "type": "uint256"
        }
      ],
      "name": "getListing",
      "outputs": [
        {
          "components": [
            {
              "internalType": "uint256",
              "name": "price",
              "type": "uint256"
            },
            {
              "internalType": "address",
              "name": "seller",
              "type": "address"
            }
          ],
          "internalType": "struct NFTMarketplace.Listing",
          "name": "",
          "type": "tuple"
        }
      ],
      "stateMutability": "view",
      "type": "function"
    },
    {
      "inputs": [
        {
          "internalType": "address",
          "name": "seller",
          "type": "address"
        }
      ],
      "name": "getProceeds",
      "outputs": [
        {
          "internalType": "uint256",
          "name": "",
          "type": "uint256"
        }
      ],
      "stateMutability": "view",
      "type": "function"
    },
    {
      "inputs": [
        {
          "internalType": "address",
          "name": "nftAddress",
          "type": "address"
        },
        {
          "internalType": "uint256",
          "name": "tokenId",
          "type": "uint256"
        },
        {
          "internalType": "uint256",
          "name": "price",
          "type": "uint256"
        }
      ],
      "name": "listItem",
      "outputs": [],
      "stateMutability": "nonpayable",
      "type": "function"
    },
    {
      "inputs": [
        {
          "internalType": "address",
          "name": "",
          "type": "address"
        },
        {
          "internalType": "uint256",
          "name": "",
          "type": "uint256"
        }
      ],
      "name": "listings",
      "outputs": [
        {
          "internalType": "uint256",
          "name": "price",
          "type": "uint256"
        },
        {
          "internalType": "address",
          "name": "seller",
          "type": "address"
        }
      ],
      "stateMutability": "view",
      "type": "function"
    },
    {
      "inputs": [],
      "name": "owner",
      "outputs": [
        {
          "internalType": "address",
          "name": "",
          "type": "address"
        }
      ],
      "stateMutability": "view",
      "type": "function"
    },
    {
      "inputs": [
        {
          "internalType": "address",
          "name": "",
          "type": "address"
        }
      ],
      "name": "proceeds",
      "outputs": [
        {
          "internalType": "uint256",
          "name": "",
          "type": "uint256"
        }
      ],
      "stateMutability": "view",
      "type": "function"
    },
    {
      "inputs": [],
      "name": "renounceOwnership",
      "outputs": [],
      "stateMutability": "nonpayable",
      "type": "function"
    },
    {
      "inputs": [
        {
          "internalType": "address",
          "name": "newOwner",
          "type": "address"
        }
      ],
      "name": "transferOwnership",
      "outputs": [],
      "stateMutability": "nonpayable",
      "type": "function"
    },
    {
      "inputs": [
        {
          "internalType": "address",
          "name": "nftAddress",
          "type": "address"
        },
        {
          "internalType": "uint256",
          "name": "tokenId",
          "type": "uint256"
        },
        {
          "internalType": "uint256",
          "name": "newPrice",
          "type": "uint256"
        }
      ],
      "name": "updateListing",
      "outputs": [],
      "stateMutability": "nonpayable",
      "type": "function"
    },
    {
      "inputs": [],
      "name": "withdrawProceeds",
      "outputs": [],
      "stateMutability": "nonpayable",
      "type": "function"
    }
  ],
  "bytecode": "0x60806040523480156200001157600080fd5b50336001600081905550600073ffffffffffffffffffffffffffffffffffffffff168173ffffffffffffffffffffffffffffffffffffffff1603620000905760006040517f1e4fbdf7000000000000000000000000000000000000000000000000000000008152600401620000879190620001b3565b60405180910390fd5b620000a181620000a860201b60201c565b50620001d0565b6000600160009054906101000a900473ffffffffffffffffffffffffffffffffffffffff16905081600160006101000a81548173ffffffffffffffffffffffffffffffffffffffff021916908373ffffffffffffffffffffffffffffffffffffffff1602179055508173ffffffffffffffffffffffffffffffffffffffff168173ffffffffffffffffffffffffffffffffffffffff167f8be0079c531659141344cd1fd0a4f28419497f9722a3daafe3b4186f6b6457e060405160405180910390a35050565b600073ffffffffffffffffffffffffffffffffffffffff82169050919050565b60006200019b826200016e565b9050919050565b620001ad816200018e565b82525050565b6000602082019050620001ca6000830184620001a2565b92915050565b611c1780620001e06000396000f3fe6080604052600436106100a65760003560e01c80638da5cb5b116100645780638da5cb5b146101e05780639038e6931461020b5780639f37092a14610222578063b2ddee061461023e578063f2fde38b14610267578063f772adf114610290576100a6565b806207df30146100ab57806330cfeda9146100e957806335adde5414610126578063715018a61461016357806388700d1c1461017a57806389bfd38f146101b7575b600080fd5b3480156100b757600080fd5b506100d260048036038101906100cd91906113d0565b6102b9565b6040516100e092919061142e565b60405180910390f35b3480156100f557600080fd5b50610110600480360381019061010b9190611457565b61030a565b60405161011d9190611484565b60405180910390f35b34801561013257600080fd5b5061014d60048036038101906101489190611457565b610353565b60405161015a9190611484565b60405180910390f35b34801561016f57600080fd5b5061017861036b565b005b34801561018657600080fd5b506101a1600480360381019061019c91906113d0565b61037f565b6040516101ae91906114ec565b60405180910390f35b3480156101c357600080fd5b506101de60048036038101906101d99190611507565b61044a565b005b3480156101ec57600080fd5b506101f5610796565b604051610202919061155a565b60405180910390f35b34801561021757600080fd5b506102206107c0565b005b61023c600480360381019061023791906113d0565b61099a565b005b34801561024a57600080fd5b50610265600480360381019061026091906113d0565b610ca0565b005b34801561027357600080fd5b5061028e60048036038101906102899190611457565b610efe565b005b34801561029c57600080fd5b506102b760048036038101906102b29190611507565b610f84565b005b6003602052816000526040600020602052806000526040600020600091509150508060000154908060010160009054906101000a900473ffffffffffffffffffffffffffffffffffffffff16905082565b6000600260008373ffffffffffffffffffffffffffffffffffffffff1673ffffffffffffffffffffffffffffffffffffffff168152602001908152602001600020549050919050565b60026020528060005260406000206000915090505481565b610373611162565b61037d60006111e9565b565b610387611307565b600360008473ffffffffffffffffffffffffffffffffffffffff1673ffffffffffffffffffffffffffffffffffffffff1681526020019081526020016000206000838152602001908152602001600020604051806040016040529081600082015481526020016001820160009054906101000a900473ffffffffffffffffffffffffffffffffffffffff1673ffffffffffffffffffffffffffffffffffffffff1673ffffffffffffffffffffffffffffffffffffffff1681525050905092915050565b6104526112af565b60008111610495576040517f08c379a000000000000000000000000000000000000000000000000000000000815260040161048c906115d2565b60405180910390fd5b60008390503373ffffffffffffffffffffffffffffffffffffffff168173ffffffffffffffffffffffffffffffffffffffff16636352211e856040518263ffffffff1660e01b81526004016104ea9190611484565b602060405180830381865afa158015610507573d6000803e3d6000fd5b505050506040513d601f19601f8201168201806040525081019061052b9190611607565b73ffffffffffffffffffffffffffffffffffffffff1614610581576040517f08c379a000000000000000000000000000000000000000000000000000000000815260040161057890611680565b60405180910390fd5b3073ffffffffffffffffffffffffffffffffffffffff168173ffffffffffffffffffffffffffffffffffffffff1663081812fc856040518263ffffffff1660e01b81526004016105d19190611484565b602060405180830381865afa1580156105ee573d6000803e3d6000fd5b505050506040513d601f19601f820116820180604052508101906106129190611607565b73ffffffffffffffffffffffffffffffffffffffff1614610668576040517f08c379a000000000000000000000000000000000000000000000000000000000815260040161065f906116ec565b60405180910390fd5b60405180604001604052808381526020013373ffffffffffffffffffffffffffffffffffffffff16815250600360008673ffffffffffffffffffffffffffffffffffffffff1673ffffffffffffffffffffffffffffffffffffffff16815260200190815260200160002060008581526020019081526020016000206000820151816000015560208201518160010160006101000a81548173ffffffffffffffffffffffffffffffffffffffff021916908373ffffffffffffffffffffffffffffffffffffffff160217905550905050828473ffffffffffffffffffffffffffffffffffffffff167fb29a3c5d9c9eb8230bd277c54293a0a15e98cd5592a3e0d470fe9ce59fed54f1338560405161078092919061170c565b60405180910390a3506107916112f5565b505050565b6000600160009054906101000a900473ffffffffffffffffffffffffffffffffffffffff16905090565b6107c86112af565b6000600260003373ffffffffffffffffffffffffffffffffffffffff1673ffffffffffffffffffffffffffffffffffffffff1681526020019081526020016000205490506000811161084f576040517f08c379a000000000000000000000000000000000000000000000000000000000815260040161084690611781565b60405180910390fd5b6000600260003373ffffffffffffffffffffffffffffffffffffffff1673ffffffffffffffffffffffffffffffffffffffff1681526020019081526020016000208190555060003373ffffffffffffffffffffffffffffffffffffffff16826040516108ba906117d2565b60006040518083038185875af1925050503d80600081146108f7576040519150601f19603f3d011682016040523d82523d6000602084013e6108fc565b606091505b5050905080610940576040517f08c379a000000000000000000000000000000000000000000000000000000000815260040161093790611833565b60405180910390fd5b3373ffffffffffffffffffffffffffffffffffffffff167f0f2fb75cc1977a496e94837f859e957f68e26e70dc1b75d9945ee92ae57969ba836040516109869190611484565b60405180910390a250506109986112f5565b565b6109a26112af565b6000600360008473ffffffffffffffffffffffffffffffffffffffff1673ffffffffffffffffffffffffffffffffffffffff1681526020019081526020016000206000838152602001908152602001600020604051806040016040529081600082015481526020016001820160009054906101000a900473ffffffffffffffffffffffffffffffffffffffff1673ffffffffffffffffffffffffffffffffffffffff1673ffffffffffffffffffffffffffffffffffffffff168152505090506000816000015111610aa8576040517f08c379a0000000000000000000000000000000000000000000000000000000008152600401610a9f9061189f565b60405180910390fd5b8060000151341115610aef576040517f08c379a0000000000000000000000000000000000000000000000000000000008152600401610ae69061190b565b60405180910390fd5b600360008473ffffffffffffffffffffffffffffffffffffffff1673ffffffffffffffffffffffffffffffffffffffff16815260200190815260200160002060008381526020019081526020016000206000808201600090556001820160006101000a81549073ffffffffffffffffffffffffffffffffffffffff02191690555050806000015160026000836020015173ffffffffffffffffffffffffffffffffffffffff1673ffffffffffffffffffffffffffffffffffffffff1681526020019081526020016000206000828254610bc8919061195a565b925050819055508273ffffffffffffffffffffffffffffffffffffffff166342842e0e826020015133856040518463ffffffff1660e01b8152600401610c109392919061198e565b600060405180830381600087803b158015610c2a57600080fd5b505af1158015610c3e573d6000803e3d6000fd5b50505050818373ffffffffffffffffffffffffffffffffffffffff167f8ca4493c491677f20135642d78d6dc72644d000a3a6028fcb168b2d09339a4c43334604051610c8b92919061170c565b60405180910390a350610c9c6112f5565b5050565b610ca86112af565b6000600360008473ffffffffffffffffffffffffffffffffffffffff1673ffffffffffffffffffffffffffffffffffffffff1681526020019081526020016000206000838152602001908152602001600020604051806040016040529081600082015481526020016001820160009054906101000a900473ffffffffffffffffffffffffffffffffffffffff1673ffffffffffffffffffffffffffffffffffffffff1673ffffffffffffffffffffffffffffffffffffffff168152505090506000816000015111610dae576040517f08c379a0000000000000000000000000000000000000000000000000000000008152600401610da590611a11565b60405180910390fd5b3373ffffffffffffffffffffffffffffffffffffffff16816020015173ffffffffffffffffffffffffffffffffffffffff1614610e20576040517f08c379a0000000000000000000000000000000000000000000000000000000008152600401610e1790611a7d565b60405180910390fd5b600360008473ffffffffffffffffffffffffffffffffffffffff1673ffffffffffffffffffffffffffffffffffffffff16815260200190815260200160002060008381526020019081526020016000206000808201600090556001820160006101000a81549073ffffffffffffffffffffffffffffffffffffffff02191690555050818373ffffffffffffffffffffffffffffffffffffffff167fae853d44a3ea3a7fbfb13f965e42d1b6be86290588f4f7e8e496111152e8ecb433604051610ee9919061155a565b60405180910390a350610efa6112f5565b5050565b610f06611162565b600073ffffffffffffffffffffffffffffffffffffffff168173ffffffffffffffffffffffffffffffffffffffff1603610f785760006040517f1e4fbdf7000000000000000000000000000000000000000000000000000000008152600401610f6f919061155a565b60405180910390fd5b610f81816111e9565b50565b610f8c6112af565b6000600360008573ffffffffffffffffffffffffffffffffffffffff1673ffffffffffffffffffffffffffffffffffffffff168152602001908152602001600020600084815260200190815260200160002090506000816000015411611027576040517f08c379a000000000000000000000000000000000000000000000000000000000815260040161101e90611ae9565b60405180910390fd5b3373ffffffffffffffffffffffffffffffffffffffff168160010160009054906101000a900473ffffffffffffffffffffffffffffffffffffffff1673ffffffffffffffffffffffffffffffffffffffff16146110b9576040517f08c379a00000000000000000000000000000000000000000000000000000000081526004016110b090611b55565b60405180910390fd5b600082116110fc576040517f08c379a00000000000000000000000000000000000000000000000000000000081526004016110f390611bc1565b60405180910390fd5b818160000181905550828473ffffffffffffffffffffffffffffffffffffffff167f82b734916fc1640bd27e4a74f59b25fbe50fa55fa747b397b21f069067923a268460405161114c9190611484565b60405180910390a35061115d6112f5565b505050565b61116a6112ff565b73ffffffffffffffffffffffffffffffffffffffff16611188610796565b73ffffffffffffffffffffffffffffffffffffffff16146111e7576111ab6112ff565b6040517f118cdaa70000000000000000000000000000000000000000000000000000000081526004016111de919061155a565b60405180910390fd5b565b6000600160009054906101000a900473ffffffffffffffffffffffffffffffffffffffff16905081600160006101000a81548173ffffffffffffffffffffffffffffffffffffffff021916908373ffffffffffffffffffffffffffffffffffffffff1602179055508173ffffffffffffffffffffffffffffffffffffffff168173ffffffffffffffffffffffffffffffffffffffff167f8be0079c531659141344cd1fd0a4f28419497f9722a3daafe3b4186f6b6457e060405160405180910390a35050565b6002600054036112eb576040517f3ee5aeb500000000000000000000000000000000000000000000000000000000815260040160405180910390fd5b6002600081905550565b6001600081905550565b600033905090565b604051806040016040528060008152602001600073ffffffffffffffffffffffffffffffffffffffff1681525090565b600080fd5b600073ffffffffffffffffffffffffffffffffffffffff82169050919050565b60006113678261133c565b9050919050565b6113778161135c565b811461138257600080fd5b50565b6000813590506113948161136e565b92915050565b6000819050919050565b6113ad8161139a565b81146113b857600080fd5b50565b6000813590506113ca816113a4565b92915050565b600080604083850312156113e7576113e6611337565b5b60006113f585828601611385565b9250506020611406858286016113bb565b9150509250929050565b6114198161139a565b82525050565b6114288161135c565b82525050565b60006040820190506114436000830185611410565b611450602083018461141f565b9392505050565b60006020828403121561146d5761146c611337565b5b600061147b84828501611385565b91505092915050565b60006020820190506114996000830184611410565b92915050565b6114a88161139a565b82525050565b6114b78161135c565b82525050565b6040820160008201516114d3600085018261149f565b5060208201516114e660208501826114ae565b50505050565b600060408201905061150160008301846114bd565b92915050565b6000806000606084860312156115205761151f611337565b5b600061152e86828701611385565b935050602061153f868287016113bb565b9250506040611550868287016113bb565b9150509250925092565b600060208201905061156f600083018461141f565b92915050565b600082825260208201905092915050565b7f5072696365206d7573742062652067726561746572207468616e207a65726f00600082015250565b60006115bc601f83611575565b91506115c782611586565b602082019050919050565b600060208201905081810360008301526115eb816115af565b9050919050565b6000815190506116018161136e565b92915050565b60006020828403121561161d5761161c611337565b5b600061162b848285016115f2565b91505092915050565b7f596f7520617265206e6f742061204f776e6572206f662074686973206e667400600082015250565b600061166a601f83611575565b915061167582611634565b602082019050919050565b600060208201905081810360008301526116998161165d565b9050919050565b7f4d61726b657420506c616365206e6f7420617070726f76656400000000000000600082015250565b60006116d6601983611575565b91506116e1826116a0565b602082019050919050565b60006020820190508181036000830152611705816116c9565b9050919050565b6000604082019050611721600083018561141f565b61172e6020830184611410565b9392505050565b7f4e6f2070726f636565647320746f207769746864726177000000000000000000600082015250565b600061176b601783611575565b915061177682611735565b602082019050919050565b6000602082019050818103600083015261179a8161175e565b9050919050565b600081905092915050565b50565b60006117bc6000836117a1565b91506117c7826117ac565b600082019050919050565b60006117dd826117af565b9150819050919050565b7f5472616e73666572206661696c65640000000000000000000000000000000000600082015250565b600061181d600f83611575565b9150611828826117e7565b602082019050919050565b6000602082019050818103600083015261184c81611810565b9050919050565b7f4974656d206e6f74204c697374656420466f722073616c650000000000000000600082015250565b6000611889601883611575565b915061189482611853565b602082019050919050565b600060208201905081810360008301526118b88161187c565b9050919050565b7f4e6f7420456e6f756768204554482073656e7400000000000000000000000000600082015250565b60006118f5601383611575565b9150611900826118bf565b602082019050919050565b60006020820190508181036000830152611924816118e8565b9050919050565b7f4e487b7100000000000000000000000000000000000000000000000000000000600052601160045260246000fd5b60006119658261139a565b91506119708361139a565b92508282019050808211156119885761198761192b565b5b92915050565b60006060820190506119a3600083018661141f565b6119b0602083018561141f565b6119bd6040830184611410565b949350505050565b7f4974656d204e6f74204c69737465640000000000000000000000000000000000600082015250565b60006119fb600f83611575565b9150611a06826119c5565b602082019050919050565b60006020820190508181036000830152611a2a816119ee565b9050919050565b7f596f7520617265206e6f74207468652073656c6c657200000000000000000000600082015250565b6000611a67601683611575565b9150611a7282611a31565b602082019050919050565b60006020820190508181036000830152611a9681611a5a565b9050919050565b7f4974656d206e6f74206c69737465640000000000000000000000000000000000600082015250565b6000611ad3600f83611575565b9150611ade82611a9d565b602082019050919050565b60006020820190508181036000830152611b0281611ac6565b9050919050565b7f596f7520617265206e6f74207468652053656c6c657200000000000000000000600082015250565b6000611b3f601683611575565b9150611b4a82611b09565b602082019050919050565b60006020820190508181036000830152611b6e81611b32565b9050919050565b7f5072696365206d7573742062652067726561746572207468616e203000000000600082015250565b6000611bab601c83611575565b9150611bb682611b75565b602082019050919050565b60006020820190508181036000830152611bda81611b9e565b905091905056fea26469706673582212204b84aa04cc0a79a98b520ab049933bf67df4b0eaf3ed74bdab78bd10a775e5ea64736f6c63430008140033",
  "linkReferences": {},
  "deployedLinkReferences": {}
}